:100000000C949D0E0C94BA0E0C94BA0E0C94BA0E6D
:100010000C94BA0E0C94BA0E0C94BA0E0C94BA0E40
:100020000C94BA0E0C94BA0E0C94BA0E0C94BA0E30
:100030000C94BA0E0C94BA0E0C9415190C94BA0EBA
:100040000C94BA0E0C94BA0E0C94BA0E0C94BA0E10
:100050000C94BA0E0C94BA0E0C94BA0E0C94BA0E00
:100060000C94BA0E0C94BA0E4156524D0A13000964
:100070006300076C000A6C150000005D0100400081
:10008000000000EB000040000000003E00004006C1
:10009000003800910000200000000014000040061D
:1000A000000E002000004012000E00140000400668
:1000B000000E002000004012000E00140000400658
:1000C000000E002000004012000E0002000100039C
:1000D000040604052506A2300200540C274E8E0F9C
:1000E000FD0000FC0000FF0010550ED2FD80044210
:1000F0009408569208FD0000FD8004FE8008FE80F2
:1001000008FD0000FE80046008005414CCFF0010BD
:10011000FE8004FC00005412CCFC800426860433CC
:100120000220540C374D0E00FE8004FC0000FF003E
:1001300010FD0000300400600800429208FF00102B
:10014000330410FC0000FE8008FC80041286044288
:100150009408540C373A8E0FFE8004FE8008FF008E
:100160001040CE101D0600600800540C27FCC00093
:10017000FD0000FC0000FF0010FCC00026860430DB
:100180000200569208FF0010FE8004FC0000FE8072
:1001900008FC80041446035E94084C0C49430E206E
:1001A0001CC6F0FE8008FF0010FD0000FD8002600C
:1001B00008004C0C49FF0008FD8002FC0000FF0015
:1001C00010FC80044E86043002004292084D0E005E
:1001D000FE8004FC0000FE8008FD00001E86046313
:1001E00008104C0C49FD0000FE8004630818FF0055
:1001F00010FD0000300400630800429208FF001068
:10020000330410FC0000FE8008FC80041E860430CD
:1002100002004E92084F0E20FE8004FC0000FE807B
:1002200008FD0000FE8004600800429208468E0F20
:10023000FE8004FC0000FE80084D0E002E86046047
:1002400008004C0C49FF0010FE8004FC0000FF0079
:1002500010FC80043106A23002004C0C57410E0005
:10026000FD0000FC0000FF00104F0E1EFD80044E3C
:100270009408629208310E00FD8004FE8008FE8022
:1002800008FD0000FE80046008004C14CCFD000056
:10029000FE8004FC00004C12CCFD000032860433CA
:1002A00002204C0C59FF0010FE8004FC0000FF00EF
:1002B00010FC80043004006008004E9208330E20C9
:1002C000330410FC0000FE8008FD00001E86044E72
:1002D00094084C0C59FF0008FE8004FE8008FF00C3
:1002E00010FC80042D06006008004C0C57328E0F65
:1002F000FD0000FC0000FF001038CE1032860430F4
:100300000200629208FCC000FE8004FC0000FE8037
:1003100008FCC0002446035E94084C0C47FF001004
:100320002CC6F0FE8008FF0010FC8004FD800260F7
:1003300008004C0C473B0E20FD8002FC0000FF0033
:1003400010FD00005E86043002003A9208268E0FEF
:10035000FE8004FC0000FE80082D0E002E86046343
:1003600008104C0C47FD0000FE8004630818FF00D5
:1003700010FD00003004006308003A9208FF0010EE
:10038000330410FC0000FE8008FC80042E8604303C
:1003900002004E92082F0E20FE8004FC0000FE801A
:1003A00008FD0000FE80046008003A9208468E0FA7
:1003B000FE8004FC0000FE80084D0E003A860460BA
:1003C00008004C0C47FF0010FE8004FC0000FF00FA
:1003D00010FC80042506A2300200540C274E8E0F1C
:1003E000FD0000FC0000FF0010550ED2FD8004420D
:1003F0009408569208FD0000FD8004FE8008FE80EF
:1004000008FD0000FE80046008005414CCFF0010BA
:10041000FE8004FC00005412CCFC800426860433C9
:100420000220540C374D0E00FE8004FC0000FF003B
:1004300010FD0000300400600800429208FF001028
:10044000330410FC0000FE8008FC80041286044285
:100450009408540C373A8E0FFE8004FE8008FF008B
:100460001040CE101D0600600800540C27FCC00090
:10047000FD0000FC0000FF0010FCC00026860430D8
:100480000200569208FF0010FE8004FC0000FE806F
:1004900008FC80041446035E94084C0C49430E206B
:1004A0001CC6F0FE8008FF0010FD0000FD80026009
:1004B00008004C0C49FF0008FD8002FC0000FF0012
:1004C00010FC80044E86043002004292084D0E005B
:1004D000FE8004FC0000FE8008FD00001E86046310
:1004E00008104C0C49FD0000FE8004630818FF0052
:1004F00010FD0000300400630800429208FF001065
:10050000330410FC0000FE8008FC80041E860430CA
:1005100002004E92084F0E20FE8004FC0000FE8078
:1005200008FD0000FE8004600800429208550E009D
:10053000FE8004FC0000FE80085E8E0F2E860460A4
:1005400008004C0C49FF0010FE8004FC0000FF0076
:1005500010FC80043106A23002004C0C574D0E00F6
:10056000FD0000FC0000FF00104F0E1EFD80044E39
:100570009408629208610E00FD8004FE8008FE80EF
:1005800008FD0000FE80046008004C14CCFD000053
:10059000FE8004FC00004C12CCFD000032860433C7
:1005A00002204C0C59FF0010FE8004FC0000FF00EC
:1005B00010FC80043004006008004E9208630E2096
:1005C000330410FC0000FE8008FD00001E86044E6F
:1005D00094084C0C59FF0008FE8004FE8008FF00C0
:1005E00010FC80042D06006008004C0C57628E0F32
:1005F000FD0000FC0000FF001068CE1032860430C1
:100600000200629208FCC000FE8004FC0000FE8034
:1006100008FCC0002446035E94084C0C47FF001001
:100620002CC6F0FE8008FF0010FC8004FD800260F4
:1006300008004C0C476B0E20FD8002FC0000FF0000
:1006400010FD00005E86043002003A9208568E0FBC
:10065000FE8004FC0000FE80085D0E002E86046310
:1006600008104C0C47FF0010FE8004630818FF00C0
:1006700010FC80043004006308003A92084D0E001C
:10068000330410FC0000FE8008FD00002E860430BC
:1006900002004E9208FF0010FE8004FC0000FE8065
:1006A00008FC8004FE80046008003A92085D0E0099
:1006B000FE8004FC0000FE8008FD00003A86043045
:1006C00004004C0C47FF0010FE8004330410FF00B0
:1006D00010FC8004FF000033C204FFC07DFC00005A
:1006E000FC0000FC0000FC0000FC0000FC000060BE
:1006F0000800FC0000FC0000FC0000FC0000FC0006
:1007000000FC0000FC0000600800FC0000FC000091
:10071000FC0000FC0000FC0000FC00001E86043011
:100720000200FC0000FC0000FE8004FC0000FC0055
:1007300000FC0000300400FC0000FC0000FC000095
:10074000330410FC0000FC0000FC00001E86043096
:100750000200FC0000FC0000FE8004FC0000FC0025
:1007600000FC0000FE8004280400FC00004D0ED2B6
:10077000FE80042B0410FC0000FD00003A860430CB
:100780000200FC0000FF0010FE8004FC0000FF409F
:1007900000FC8004FC0000FC0000FC0000FC0000E9
:1007A000FC0000FC0000FC0000FC0000FC0000FC61
:1007B0000000FC0000FC0000FC0000FC0000FC004D
:1007C00000FC0000FC0000FC0000FC0000FC00003D
:1007D000FC0000FC0000FC0000FC0000FC0000FC31
:1007E0000000FC0000FC0000FC0000FC0000FC001D
:1007F00000FC0000FC0000FC0000FC0000FC00000D
:10080000FC0000FC0000FC0000FC0000FC0000FC00
:100810000000FC0000FC0000FC0000FC0000FC00EC
:1008200000FC0000FC0000FC0000FC0000FC0000DC
:10083000FC0000FC0000FC0000FC0000FC0000FCD0
:100840000000FC0000FC0000FC0000FC0000FC00BC
:1008500000FC0000FC0000FC0000FC0000FC0000AC
:10086000FC0000FC0000FC0000FC0000FC0000FCA0
:100870000000FC0000FC0000FC0000FC0000FC008C
:1008800000FC0000FC0000FC0000FC0000FC00007C
:10089000FC0000FC0000FC0000FC0000FC0000FC70
:1008A0000000FC0000FC0000FC0000FC0000FC005C
:1008B00000FC0000FC0000FC0000FC0000FC00004C
:1008C000FC0000FC0000FC0000FC0000FC0000FC40
:1008D0000000FC0000FC0000FC0000FC0000FC002C
:1008E00000FC0000FC0000FC0000FC0000FC00001C
:1008F000FC0000FC0000FC0000FC0000FC0000FC10
:100900000000FC0000FC0000FC0000FC0000FC00FB
:1009100000FC0000FC0000FC0000FC0000FC0000EB
:10092000FC0000FC0000FC0000FC0000FC0000FCDF
:100930000000FC0000FC0000FC0000FC0000FC00CB
:1009400000FC0000FC0000FC0000FC0000FC0000BB
:10095000FC0000FC0000FC0000FC0000FC0000FCAF
:100960000000FC0000FC0000FC0000FC0000FC009B
:1009700000FC0000FC0000FC0000FC0000FC00008B
:10098000FC0000FC0000FC0000FC0000FC0000FC7F
:100990000000FC0000FC0000FC0000FC0000FC006B
:1009A00000FC0000FC0000FC0000FC0000FC00005B
:1009B000FC0000FC0000FC0000FC0000FC0000FC4F
:1009C0000000FC0000FC0000FC0000FC0000FC003B
:1009D00000FC00002506A2300200540C274E8E0FAA
:1009E000FD0000FC0000FF0010550ED2FD80044207
:1009F0009408569208FD0000FD8004FE8008FE80E9
:100A000008FD0000FE80046008005414CCFF0010B4
:100A1000FE8004FC00005412CCFC800426860433C3
:100A20000220540C374D0E00FE8004FC0000FF0035
:100A300010FD0000300400600800429208FF001022
:100A4000330410FC0000FE8008FC8004128604427F
:100A50009408540C373A8E0FFE8004FE8008FF0085
:100A60001040CE101D0600600800540C27FCC0008A
:100A7000FD0000FC0000FF0010FCC00026860430D2
:100A80000200569208FF0010FE8004FC0000FE8069
:100A900008FC80041446035E94084C0C49430E2065
:100AA0001CC6F0FE8008FF0010FD0000FD80026003
:100AB00008004C0C49FF0008FD8002FC0000FF000C
:100AC00010FC80044E86043002004292084D0E0055
:100AD000FE8004FC0000FE8008FD00001E8604630A
:100AE00008104C0C49FD0000FE8004630818FF004C
:100AF00010FD0000300400630800429208FF00105F
:100B0000330410FC0000FE8008FC80041E860430C4
:100B100002004E92084F0E20FE8004FC0000FE8072
:100B200008FD0000FE8004600800429208550E0097
:100B3000FE8004FC0000FE80085E8E0F2E8604609E
:100B400008004C0C49FF0010FE8004FC0000FF0070
:100B500010FC80043106A23002004C0C574D0E00F0
:100B6000FD0000FC0000FF00104F0E1EFD80044E33
:100B70009408629208610E00FD8004FE8008FE80E9
:100B800008FD0000FE80046008004C14CCFD00004D
:100B9000FE8004FC00004C12CCFD000032860433C1
:100BA00002204C0C59FF0010FE8004FC0000FF00E6
:100BB00010FC80043004006008004E9208630E2090
:100BC000330410FC0000FE8008FD00001E86044E69
:100BD00094084C0C59FF0008FE8004FE8008FF00BA
:100BE00010FC80042D06006008004C0C57628E0F2C
:100BF000FD0000FC0000FF001068CE1032860430BB
:100C00000200629208FCC000FE8004FC0000FE802E
:100C100008FCC0002E86043002004C0C47FD800406
:100C2000FE8004FC0000FF0010FD8004FF00006057
:100C30000800FF0000FC8004FC0000FC0000FC0039
:100C400000FC8004FC0000600800FC00006B0E202B
:100C5000FC0000FC0000FC0000FD0000FC00006047
:100C60000800FC0000FD8002FC0000FC0000FC000D
:100C700000FD8002FC0000600800FC0000FD800216
:100C8000FC0000FC0000FC0000FD8002FC000030C5
:100C900002001D0CF2FC8004FC0000FC0000FD00C2
:100CA00000FC8004FC0000300200FD80016B0E108F
:100CB000330410FC0000FD0000FD0000300400FCC7
:100CC0000000FD8001FD8004330420FC0000FD8055
:100CD00001FD80040106A2300200310CF2445003F1
:100CE000FD800FFC0000FD00004D10E301060060D8
:100CF0000800FD8001FD0000FD0000FC0000FD007B
:100D000000FD0000FD800F4C0A59FD8001FF00101E
:100D1000FD0000FF0010FD0000FD00002C460360F8
:100D20000800FD800141100030C6F0FC0000FD000D
:100D300000FD00003004004C0A59FD8001FF001046
:100D40003304104C0C59FD0000FD0000010600307A
:100D50000200FD8001311000FD0000FC0000FD00DC
:100D600000FD0000FD800F4C0A59FD8001FD0000D0
:100D7000FD0000FF0010FD0000FD000031060060D6
:100D80000800FD8001145003FD0000FC0000FD8000
:100D9000011D10001446033002002D0C00FD000060
:100DA0001CC6F0FC0000FD0000FD0000FD800F4CA3
:100DB0000A49FD8001FF0010FD0000FF0010FD004A
:100DC00000FD00004D0600300200FD8001251000EE
:100DD000FD800FFC0000FD0000FD00001D0600600E
:100DE0000800FD80012D1000FD800FFC0000FD00BB
:100DF00000FD00003004004C0A49FD8001FD0000A8
:100E0000330410FF0010FD0000FD0000110600304B
:100E10000200FD8001FF0010FD800FFC0000FD00BE
:100E200000FD00003846034C0A49FD8001411000D6
:100E300040C6F0FF0010FD0000FD00002D06006020
:100E40000800FD8001FF0010FD800F600800FD809C
:100E500001FD0000250600300200250C00311000C5
:100E6000FD800FFC0000FD0000FD00002506006075
:100E70000800FD8001FD0000FD0000FC0000FD00F9
:100E800000FD0000FD800F540A37FD8001FF0010B7
:100E9000FD0000FF0010FD0000FD00004C46036057
:100EA0000800FD800125100054C6F0FC0000FD0084
:100EB00000FD0000300400540A37FD8001FD0000F1
:100EC000330410540C37FD0000FD000025060030EF
:100ED0000200FD80011D1000FD0000FC0000FD006F
:100EE00000FD0000FD800F540A37FD8001FF001057
:100EF000FD0000FF0010FD0000FD00005506006031
:100F00000800FD80012C5003FD800FFC0000FD0057
:100F10000030D003104603300200FD8001FCC00009
:100F200014C6F0FC0000FD0000FCC000FD800F5462
:100F30000A38FD8001FD8002FD0000FF0010FD0069
:100F400000FD8002450600300200FD8001FC8004A7
:100F5000FD800FFC0000FD0000FC80041506006011
:100F60000800FD8001331020FD800FFC0000FD0013
:100F700000FD0000300400540A38FD8001FD00002F
:100F8000330410FF0010FD8001FD00002506003035
:100F90000200150C00251000FD800FFC0000FD0074
:100FA00000FD0000150600540A38FD8001FF001006
:100FB000FD800FFF0010FD0000FD00002506006011
:100FC0000800FD8001FD0000FD800F600800FD802D
:100FD00001FD00000106A2300200110CF21D10E319
:100FE000FD800FFC0000FD0000FD00000106006018
:100FF0000800FD8001FD0000FD0000FC0000FD0078
:1010000000FD0000FD800F4C0A59FD8001FF00101B
:10101000FD0000FF0010FD0000FD00002C460360F5
:101020000800FD800131100030C6F0FC0000FD001A
:1010300000FD00003004004C0A59FD8001FF001043
:101040003304104C0C59FD0000FD00000106003077
:101050000200FD80011D1000FD0000FC0000FD00ED
:1010600000FD0000FD800F4C0A59FD8001FD0000CD
:10107000FD0000FF0010FD0000FD000031060060D3
:101080000800FD8001385003FD0000FC0000FD80D9
:10109000014110001446033002001D0C00FD000049
:1010A0001CC6F0FC0000FD0000FD0000FD800F4CA0
:1010B0000A49FD8001FF0010FD0000FF0010FD0047
:1010C00000FD00004D0600300200FD8001411000CF
:1010D000FD800FFC0000FD0000FD00001D0600600B
:1010E0000800FD80014D10E2FD800FFC0000FD00B6
:1010F00000FD00003004004C0A49FD8001FF001093
:10110000330410FF0010FD0000FD00001106003048
:101110000200FD8001FD0000FD800FFC0000FD00CD
:1011200000FD00003846034C0A49FD80015D1000B7
:1011300040C6F0FF0010FD0000FD00002D0600601D
:101140000800FD8001FF0010FD800F600800FD8099
:1011500001FD0000250600300200250C005C500354
:10116000FD800FFC0000FD000061100025060060FE
:101170000800FD8001FD0000FD0000FC0000FD00F6
:1011800000FD0000FD800F540A37FD8001FF0010B4
:10119000FD0000FF0010FD0000FD00004C46036054
:1011A0000800FD800155100054C6F0FC0000FD0051
:1011B00000FD0000300400540A37FD8001FD0000EE
:1011C000330410540C37FD0000FD000025060030EC
:1011D0000200FD80014D1000FD0000FC0000FD003C
:1011E00000FD0000FD800F540A37FD8001FF001054
:1011F000FD0000FF0010FD0000FD0000550600602E
:101200000800FD80014C5003FD800FFC0000FD0034
:101210000054D004104603300200FD8001FCC000E1
:1012200014C6F0FC0000FD0000FCC000FD800F545F
:101230000A38FD8001FD8002FD0000FF0010FD0066
:1012400000FD8002450600300200FD8001FC8004A4
:10125000FD800FFC0000FD0000FC8004150600600E
:101260000800FD8001571020FD800FFC0000FD00EC
:1012700000FD0000300400540A38FD8001FD8002AA
:10128000330410FF0010FD0000FD0000FC0000FF13
:101290000000FD8001FD8002FC0000FC0000FD005C
:1012A00000FD8002FC0000300200FD8001450E00C0
:1012B000FC0000FC0000FD0000FD0000300400FC0C
:1012C0000000FD8001FF0010330420FC0000FEC080
:1012D00001FD00000106A2300200110CF21D10E316
:1012E000FD800FFC0000FD0000FD00000106006015
:1012F0000800FD8001FD0000FD0000FC0000FD0075
:1013000000FD0000FD800F4C0A59FD8001FF001018
:10131000FD0000FF0010FD0000FD00002C460360F2
:101320000800FD800131100030C6F0FC0000FD0017
:1013300000FD00003004004C0A59FD8001FF001040
:101340003304104C0C59FD0000FD00000106003074
:101350000200FD80011D1000FD0000FC0000FD00EA
:1013600000FD0000FD800F4C0A59FD8001FD0000CA
:10137000FD0000FF0010FD0000FD000031060060D0
:101380000800FD8001385003FD0000FC0000FD80D6
:10139000014110001446033002001D0C00FD000046
:1013A0001CC6F0FC0000FD0000FD0000FD800F4C9D
:1013B0000A49FD8001FF0010FD0000FF0010FD0044
:1013C00000FD00004D0600300200FD8001411000CC
:1013D000FD800FFC0000FD0000FD00001D06006008
:1013E0000800FD80014D10E2FD800FFC0000FD00B3
:1013F00000FD00003004004C0A49FD8001FF001090
:10140000330410FF0010FD0000FD00001106003045
:101410000200FD8001FD0000FD800FFC0000FD00CA
:1014200000FD00003846034C0A49FD80015D1000B4
:1014300040C6F0FF0010FD0000FD00002D0600601A
:101440000800FD8001FF0010FD800F600800FD8096
:1014500001FD0000250600300200250C005C500351
:10146000FD800FFC0000FD000061100025060060FB
:101470000800FD8001FD0000FD0000FC0000FD00F3
:1014800000FD0000FD800F540A37FD8001FF0010B1
:10149000FD0000FF0010FD0000FD00004C46036051
:1014A0000800FD800155100054C6F0FC0000FD004E
:1014B00000FD0000300400540A37FD8001FD0000EB
:1014C000330410540C37FD0000FD000025060030E9
:1014D0000200FD80014D1000FD0000FC0000FD0039
:1014E00000FD0000FD800F540A37FD8001FF001051
:1014F000FD0000FF0010FD0000FD0000550600602B
:101500000800FD80014C5003FD800FFC0000FD0031
:101510000054D004104603300200FD8001FCC000DE
:1015200014C6F0FC0000FD0000FCC000FD800F545C
:101530000A38FD8001FD8002FD0000FF0010FD0063
:1015400000FD8002450600300200FD8001FC8004A1
:10155000FD800FFC0000FD0000FC8004150600600B
:101560000800FD8001571020FD800FFC0000FD00E9
:1015700000FD0000300400540A38FD8001FD8002A7
:10158000330410FF0010FD8001FD0000250600302F
:101590000200150C00FD8002FD800FFC0000FD0024
:1015A00000FD8002150600540A38FD800145100038
:1015B000FD800FFF0010FD0000FD0000250600303B
:1015C0000400FD8001FF0010FD800F330410FD803A
:1015D00001FD0000000002DEFC1A0618EAEEF8EA3F
:1015E00008F6EC2A26F826C0041A0CDC007F807F5F
:1015F0007F804C4AC04224FC12D6807F7F807F804F
:10160000FC80004A8080808080AC80808080D68092
:101610008080EA8A80D0F0B830D6F65CFC2A72402E
:101620007F7F7F7F7F7F7F7F7F7F7F7F7F7F7F7FCA
:101630007F7F7F7F7F7F7F7F7F7F7F7F607F7F7FD9
:101640002442F4A0E0808080808080808080808040
:10165000808080808080808080808080808080808A
:10166000808080808080808080808080808080807A
:1016700080808080AEE49CEAE0143434387F7F7F41
:101680007F7F7F7F7F7F7F7F7F7F7F7F7F7F7F7F6A
:101690007F7F7F7F7F7F7F7F7F7F7F7F7F7F7F7F5A
:1016A0007F7F7F7F7F7F7F7F7F7F7F7F7F7F7F7F4A
:1016B0007F7F7F7F26541A1212BEA8BCAE80848022
:1016C000808080808080808080808080808080801A
:1016D000808080808080808080808080808080800A
:1016E00080808080808080808080808080808080FA
:1016F000808084948A98BCBCD0FCEC182A244A547C
:101700004C707A7E7F7F7F7F7F7F7F7F7F7F7F7F31
:101710007F7F7F7F7F7F7F7F7F7F7F7F7F7F7F7FD9
:101720007F7F7F7F7F7F7F7F7F7F7F7F7F7F7F7FC9
:101730007F7F74687F7F58665C704A3C36380E182D
:1017400010E418F4ECE8EED6D8CABCC4B4BCAEB011
:10175000A0A48290888C8880808A8080808080800D
:101760008080808080808080808080808080888071
:101770008080808880A89CA0A0B8B0B4CAC4D0CC17
:10178000D4E0E8E8E0F8E8EEEEF602F40208060637
:10179000140C061A060E1A141E082614241A0E1209
:1017A000042010061806080C0E101014061A140C4B
:1017B0001A1A1A122010260C1A1E12301E30281E59
:1017C00030283020382C302A3034303620303E2A31
:1017D00032342A3238262C2A20301A202C18201095
:1017E0000E180C0812080E08FCFAF6EAFAE4ECF4FB
:1017F000E8DEE2EAD4D8DCCCE2D4D2D6C6D4CAD071
:10180000CAD0CCC8D6CCD2CAD4C6DCD0DED8E4D6B6
:10181000E0D4DEDEECDEE2E8E8EAE0ECEEEEE0F674
:10182000ECF6F60CFCFC08FCFC04FA120E020218A2
:10183000080C1C180C1410101C08141A1C10181872
:10184000101E181A0E1E0C181014121412120C0E60
:101850000E08020C0C10FC180602100CFA180606F2
:1018600010FC04020CFAFC0204FCF808FA02000462
:10187000FA02FAFC000006FC0200020002F600FA7E
:1018800000F808FCFA04F602FAFCF602FAFA000084
:101890008080008080808080F8808E7F7F7F7F7F47
:1018A0007F7F7F7F7F7F7F7F7F7F7F7F80A2808022
:1018B000808080808080808080ACEC4CFC507F7C7D
:1018C0007F7F7F7F7F7F401E02DC80800C80A0A016
:1018D0008080A08080808080DC8080A2AC802AA074
:1018E000347F6C7F7F687F7F7F7F7F7F7F7FA01EBD
:1018F000008080D680808080808080808080808012
:101900008082D4FC7F7F7F7F7F4C607F7F4034501C
:101910007F80A2BC808080808480AE8080808E802A
:10192000808400960EC87F7F7F7F747F7C7F7F7C62
:101930007F7F0E7F1E1E7F7FD61A80A69A808080B2
:101940008080808080801880841E587F607FFC7F2C
:101950007F7F4C7F7F7FEC1A1AFCA0AC80A680A012
:101960008080808A8080805880E4ECDC1A7F3C583C
:101970005CFC24ECE8F07F60E0EC00000CF074808C
:10198000AEFC80BEA0AE40808082129A8280BE02F1
:1019900080F4EC3C80804012AC607F7C7040603012
:1019A0007FDC3400501A008ED0A080BC808E8080F6
:1019B0008E9A80C8DC94AC0E1E7F3C7F7C007F7CBE
:1019C0007A007F007F1E1A2A48BC40BE9AC480E479
:1019D000C880A680808E80A6DCD03CF0485CFC3CB1
:1019E00012E4282870242A7C1E600C6C42347C246B
:1019F000FCF080EC808E80841E80F4808080848067
:101A0000D496B200EC02800200703CEC00686C607E
:101A10004C000E281ADC80A680BCC818E48A8224F8
:101A2000BC18D4D6E01EE0ECE85CFCB8BED0061AC8
:101A3000E0EC06400042E400FC30E8E8F44CCAEC7C
:101A4000BCBEDC12DCB2AC80B28000BCA6FCFCECFC
:101A5000BEE4423CFCD0005C363642282A3CFCE026
:101A60001A40C806CDCDCECECECECECECECECECEA8
:101A7000CECECECECECECECECECECECECECECECE86
:101A8000CECECECECECE545454545454545454543A
:101A90005454545454545454545454545454545406
:101AA00054545454545454545454545454545454F6
:101AB00054545454545454CDD1D3D6D9DCDDE1E43C
:101AC000E7E9ECEDF0F2F5F7FAFCFDFDFDFDFDFDBB
:101AD000FDFDFDFDFDFDFDFDFDFDFDFDFDFDFDFD36
:101AE0000000000000E8ECF6ECF0F6F038D4002A34
:101AF00000AED4B8EC18202AF0EC08F6FA4C261CFC
:101B000078120000D4AEDEE8DE20F61220FA0400DF
:101B1000000020D418F0000EF6385000D820D8A0CD
:101B200000EC26DE00F6F60000F0B8E8DE04004225
:101B3000042A50FA001C00002A00D4ECDE00B22077
:101B4000DEF66430000026000020002604D4D40411
:101B50000400DEECE8E8001826002A38EC00F6B2B3
:101B6000ECFA12DE1226ECF62A125000ECD4120423
:101B7000F0C62ADEEC48D41204E8EC381200001259
:101B80004C261C20181C000E08F00000F6002A1835
:101B9000FA0020120018F0BC080020D40000D8047D
:101BA00018F62A5A0808180012ECD400042AD400A7
:101BB00000E2DE00CA0E08DED4C6001212381C0095
:101BC00000F60000EC122018121200BCDE1CEC0023
:101BD0000000D4F0F6003800F000D40000F0D4D4B7
:101BE000F6001C001CFAF038000008D4B8ECD40051
:101BF0000EFA00F0E8EC1804EC2A202AEC0000E8C9
:101C0000FA00FFFFFFFFFF000000000000000000DF
:101C1000000000E3E1DFDCD4D0C7BCB5A7A3DCDF64
:101C2000E1E3232207FDFDFDFDFD00000000D7D705
:101C3000D4D4D3D3D3D3D3D3D3D3D3D3D3D3D3D372
:101C4000D3D3D3D3D3D3D3D3D3D3D3D3D3D3D3D364
:101C5000D3D3D6DFE2EBEEF500070F0FF1D3C7C108
:101C6000ABA0A6C6C7C7C7C7C7C7FFFFFFFFFF0018
:101C70000101010101010101010101DED4DBDCE30D
:101C8000E9FA01483C32E8D7ABDC2D2C09FDFDFD1B
:101C9000FDFD00000000000000000000000000C783
:101CA000C7C7C7C7C7C7C7C7C7C7C7C7C7C7C7C7C4
:101CB000C7C7C7C7C7C7C7C7C7C74336CFD4DAE286
:101CC000F4F3F3F3F3F3F3F3F3F3E5E0DCD7D5D177
:101CD000CFCCFFFFFFFFFF0000000000000000006E
:101CE000000000ECEAE9E7E2DFD9D1CDC3C0E7E9C3
:101CF000EAEC171704FDFDFDFDFD00000000E4E423
:101D0000E2E2E1E1E1E1E1E1E1E1E1E1E1E1E1E1C1
:101D1000E1E1E1E1E1E1E1E1E1E1E1E1E1E1E1E1B3
:101D2000E1E1E3E9EBF1F3F800040A0AF5E1D9D5C2
:101D3000C6BEC2D8D9D9D9D9D9D911241FBECFEF9F
:101D4000D8E0DEBFCDBF11E0A0E0B1E0E6E1F9E30D
:101D500002C005900D92A23CB107D9F716E0A2ECA3
:101D6000B1E001C01D92A831B107E1F70E944B1C00
:101D70000C94891C0C9400009C0140E050E064E548
:101D80007DE881E090E00E94671C56954795379565
:101D90002795C9010895982F990F990B9827881FA7
:101DA0008827881F890F0895FC01E859FF4F849107
:101DB0000895FC01E859FF4F84910895FC01E8590A
:101DC000FF4F25913491C90108954115510581F0C6
:101DD000A62FB72F20E030E0F901E80FF91FE859EE
:101DE000FF4FE491ED932F5F3F4F24173507A0F38A
:101DF0000895DF93CF9300D000D0CDB7DEB7DE01DA
:101E0000119688E690E0FC0124913196E4911196B8
:101E1000EC931197FC013296E4911296EC93129791
:101E20000396FC01849113968C931397213441F00F
:101E300080E00F900F900F900F90CF91DF91089559
:101E40008A818635A9F78B81823591F781E09C8163
:101E50009D3471F7EECFFC018091D0026817D8F461
:101E6000608370E020E033E0629FC001639F900DCB
:101E7000729F900D11242091D1023091D202820FD5
:101E8000931F928381838CE0489FA0011124548387
:101E9000438381E0089580E00895680F791F83E00F
:101EA000693578073CF46137710514F461E770E037
:101EB000CB01089568E573E0CB0108950F931F935C
:101EC000CF93DF938CE690E0FC0124912093CA022B
:101ED0003196E491E093CB02FC013296E491E093D9
:101EE000CC02FC01339624912093CD02FC01349660
:101EF000E491E093CE02FC013596E491E093CF02A9
:101F0000FC013696E491E093D002FC013796E4910F
:101F1000E093D102FC013896E491E093D202FC01F7
:101F20003996E491E093D302FC013A96E491E09370
:101F3000D402FC013B96E491E093D502FC013C966F
:101F4000E491E093D602FC013D96E491E093D70240
:101F50000E96FC0184918093D8024091CE0250915C
:101F6000CF0230E02115310579F0A8E4B3E080E03C
:101F700090E0FC01E40FF51FE859FF4FE491ED9369
:101F8000019682179307A8F34091CB025091CC029F
:101F90006091CA02262F30E0220F331F220F331F19
:101FA000220F331F2115310579F0AAECB1E080E052
:101FB00090E0FC01E40FF51FE859FF4FE491ED9329
:101FC000019682179307A8F32091D4023091D5028D
:101FD0006623B9F0AAEDB5E0EAECF1E06150462FD6
:101FE00050E0440F551F44525A4F2D933D9380812A
:101FF0009181880F991F280F391F3896A417B507AC
:10200000A1F7E8ECF3E020E230E0C5E0D0E000E545
:1020100016E4C901880F991FBE010E94531CC80114
:102020000E94531C619371932F5F3F4F81E02030DA
:10203000380779F780E060E00E94BD1486E0809365
:10204000C80280938C0580918204909183049093C0
:102050004703809346038DE78093C60210928B0559
:102060002FE32093DD028FEF9FEF9093E6028093A2
:10207000E5021092E7021092E80210929305109286
:10208000920510929B051092DC022093F802909327
:102090000103809300031092020310920303109235
:1020A000A5051092A4052093AD052093F702209377
:1020B000130390931C0380931B0310921D03109233
:1020C0001E031092B7051092B6052093BF0520930A
:1020D000120320932E0390933703809336031092BC
:1020E0003803109239031092C9051092C805109256
:1020F000D10510922D0381E08093C902DF91CF9129
:102100001F910F910895DF93CF9300D00F92CDB719
:10211000DEB7DB01FC01E859FF4F2491FC01E759D0
:10212000FF4F449186599F4FFC018491922F9695C1
:1021300096959C9330E023703070220F331F220F4E
:10214000331F942F9295969596959370922B119696
:102150009C93119746954F7112964C931297139634
:102160008C9313970F900F900F90CF91DF9108955C
:10217000CF93DF93FC01C081D18188818F3F09F427
:102180006CC090E0AB81B0E0AA0FBB1FA658BE4F59
:102190002D913C913F832E83A081B18116962D9184
:1021A0003C91179743E02935340740F028E533E0A8
:1021B00017963C932E931697A081B181C281D3814B
:1021C000AC91B0E0AA0FBB1FA652BA4F2D913C9123
:1021D00039832883A281B38112961D921D921D928C
:1021E0001C921597208522602087C281D381880F99
:1021F000991F880F991F880F991FDC01A653BE4FA6
:1022000016964D915C9117974115510549F52D9101
:102210003C9140E050E069E0220F331F441F551FFE
:102220006A95D1F72A873B874C875D870280F381C7
:10223000E02D86539E4FDC0116968D919C91179749
:10224000A0E0B0E029E0880F991FAA1FBB1F2A95C4
:10225000D1F786879787A08BB18BDF91CF910895B7
:1022600014962D913C911597240F351F40E050E0B6
:1022700079E0220F331F441F551F7A95D1F7D2CF33
:102280000F931F93CF93DF93EC018C818F3309F46D
:1022900055C0888584FD4FC080FF09C0EA81FB815D
:1022A000A881B98111968C9111978087888583FFC9
:1022B00009C0EA81FB81A881B98112968C9112979D
:1022C0008187888581FF19C008811981F8012681DD
:1022D0003781838994890097A9F440E050E064E550
:1022E0007DE881E090E00E94671C56954795379500
:1022F0002795EA81FB8137832683DF91CF911F9158
:102300000F910895280F391FF3E029353F07C4F4D2
:1023100021373105C4F040E050E064E57DE881E01C
:1023200090E00E94671C5695479537952795F801D0
:10233000148A138ADECFCE010E94B8108885ACCFF4
:102340002BE330E0F4CF22EC31E0F1CF0F931F9379
:10235000DF93CF93CDB7DEB729970FB6F894DEBFE2
:102360000FBECDBF40919005509191058E010F5F3A
:102370001F4FD801E8E6F1E089E001900D9281500D
:10238000E1F78AED92E09A83898322E935E03C8384
:102390002B8320918E0530918F05240F351FF90175
:1023A000E859FF4F5491F901E759FF4F4491F90162
:1023B000E659FF4FE491652F669566956D83252F4D
:1023C00030E023703070220F331F220F331F542F41
:1023D0005295569556955370522B5E8346954F7184
:1023E0004F83E8875093DE02E093DF02442309F431
:1023F0000CC241504093DA02E42FF0E0EE0FFF1FD1
:10240000EE0FFF1FEE0FFF1FE653FE4F23812093B9
:10241000DB02298521602987DC016F3319F01396CF
:102420006C9313978091E202882399F018961C927E
:102430001897E091DD02F0E0EE0FFF1FE658FE4F27
:102440008081918117969C938E93169789858260DF
:102450008987EE81EE2319F48885882361F0F0E006
:10246000EE0FFF1FE050FF4F0190F081E02D3097FD
:1024700011F0C8010995C8010E94401140919005D2
:10248000509191054D5F5F4F50939105409390059A
:10249000D801E8E6F1E089E001900D928150E1F782
:1024A00085EF92E09A83898324EA35E03C832B838D
:1024B00020918E0530918F05240F351FF901E859C1
:1024C000FF4F5491F901E759FF4F4491F901E65943
:1024D000FF4FE491652F669566956D83252F30E05B
:1024E00023703070220F331F220F331F542F529549
:1024F000569556955370522B5E8346954F714F8378
:10250000E8875093F902E093FA02442309F47BC16F
:1025100041504093F502E42FF0E0EE0FFF1FEE0F65
:10252000FF1FEE0FFF1FE653FE4F23812093F6029D
:10253000298521602987DC016F3319F013966C938C
:1025400013978091FD02882399F018961C92189792
:10255000E091F802F0E0EE0FFF1FE658FE4F808199
:10256000918117969C938E931697898582608987AF
:10257000EE81EE2319F48885882361F0F0E0EE0FF8
:10258000FF1FE050FF4F0190F081E02D309711F0D8
:10259000C8010995C8010E944011409190055091D1
:1025A00091054D5F5F4F5093910540939005D80181
:1025B000E8E6F1E089E001900D928150E1F780E1D9
:1025C00093E09A83898326EB35E03C832B8320912B
:1025D0008E0530918F05240F351FF901E859FF4F03
:1025E0005491F901E759FF4F4491F901E659FF4F22
:1025F000E491652F669566956D83252F30E02370F5
:102600003070220F331F220F331F542F52955695CF
:1026100056955370522B5E8346954F714F83E887D2
:1026200050931403E0931503442309F4EAC0415086
:1026300040931003E42FF0E0EE0FFF1FEE0FFF1F9B
:10264000EE0FFF1FE653FE4F2381209311032985D0
:1026500021602987DC016F3319F013966C9313976F
:1026600080911803882399F018961C921897E0918E
:102670001303F0E0EE0FFF1FE658FE4F80819181BB
:1026800017969C938E931697898582608987EE8131
:10269000EE2319F48885882361F0F0E0EE0FFF1F28
:1026A000E050FF4F0190F081E02D309711F0C8010C
:1026B0000995C8010E9440114091900550919105E3
:1026C0004D5F5F4F5093910540939005D801E8E628
:1026D000F1E089E001900D928150E1F78BE293E007
:1026E0009A83898328EC35E03C832B8320918E05E7
:1026F00030918F05240F351FF901E859FF4F549190
:10270000F901E759FF4F4491F901E659FF4FE49170
:10271000652F669566956D83252F30E023703070A8
:10272000220F331F220F331F542F52955695569563
:102730005370522B5E8346954F714F83E8875093B9
:102740002F03E0933003442309F459C041504093D0
:102750002B03E42FF0E0EE0FFF1FEE0FFF1FEE0F35
:10276000FF1FE653FE4F238120932C032985216010
:102770002987DC016F3319F013966C9313978091BE
:102780003303882399F018961C921897E0912E0332
:10279000F0E0EE0FFF1FE658FE4F80819181179603
:1027A0009C938E931697898582608987EE81EE23AC
:1027B00019F48885882361F0F0E0EE0FFF1FE050E8
:1027C000FF4F0190F081E02D309711F0C80109957D
:1027D000C8010E9440118091900590919105039647
:1027E000909391058093900529960FB6F894DEBFDB
:1027F0000FBECDBFCF91DF911F910F910895DC01E6
:10280000B9CFDC0128CFDC0197CEDC0106CE0F93D7
:102810001F93DF93CF93CDB7DEB729970FB6F89408
:10282000DEBF0FBECDBF8E010F5F1F4FD801E1E7A6
:10283000F1E089E001900D928150E1F78AED92E09C
:102840009A838983E091DE02EE2321F48091DF02F6
:10285000882399F082E995E09C838B83F0E0EE0F6A
:10286000FF1FE05EFE4F0190F081E02D309729F0D0
:10287000C8010995C8010E944011D801E1E7F1E0C3
:1028800089E001900D928150E1F785EF92E09A8303
:102890008983E091F902EE2321F48091FA028823E2
:1028A00099F084EA95E09C838B83F0E0EE0FFF1FA4
:1028B000E05EFE4F0190F081E02D309729F0C801D5
:1028C0000995C8010E944011D801E1E7F1E089E0D3
:1028D00001900D928150E1F780E193E09A83898322
:1028E000E0911403EE2321F480911503882399F0DD
:1028F00086EB95E09C838B83F0E0EE0FFF1FE05E9C
:10290000FE4F0190F081E02D309729F0C801099524
:10291000C8010E944011D801E1E7F1E089E001908F
:102920000D928150E1F78BE293E09A838983E091E5
:102930002F03EE2321F480913003882399F088EC53
:1029400095E09C838B83F0E0EE0FFF1FE05EFE4F6F
:102950000190F081E02D309729F0C8010995C80158
:102960000E94401129960FB6F894DEBF0FBECDBF6E
:10297000CF91DF911F910F9108958093D90290918B
:10298000CD028917C0F5982F9F5FE82FF0E0609384
:10299000880560341CF01092880560E09093C202B4
:1029A0001092C50210928B05E85BFC4F408180912C
:1029B000D0024817F0F440938D0550E020E033E05A
:1029C000429FC001439F900D529F900D1124209172
:1029D000D1023091D202820F931F90938F05809382
:1029E0008E058CE0689FB00111247093910560936F
:1029F000900581E008951092D902E0E0F0E091E0C6
:102A0000C6CF81E08093C2018091C8028F5F80931E
:102A1000C80290918C058917E0F01092C80280914D
:102A20008805982F9F5F9093880580346CF0809183
:102A3000C2026091C5020E94BD14882349F08091B2
:102A400088058F5F809388050E94A6111092C201AD
:102A500008950E940714FACFDC01ED91FC911197C3
:102A60001086089508950895CF93DF93FC01A48103
:102A7000AF3371F0C081D181B0E0AA0FBB1FA6585F
:102A8000BE4F8D919C919C878B8780858F7E8087A0
:102A9000A081B18115968C911597882321F01A9603
:102AA0008C93A081B1818C918F3F31F414961C924C
:102AB000149715961C921597DF91CF910895FC01FC
:102AC0008781982F92959F708F70992329F0A0810C
:102AD000B1811F969C931F97882321F0A081B1811B
:102AE00050968C93A081B18151968C9151978430EE
:102AF00030F484818F3319F052961C9252970895C6
:102B0000089508950895FC01A081B18115968C91D6
:102B1000159712968C931297808588608087089508
:102B200008950895DC01ED91FC91119785818093C2
:102B3000C20280E4809388051092C50280918B05C3
:102B4000826080938B050895FC01A081B18187810B
:102B500011968C9311978085816080870895DC01A0
:102B6000ED91FC9111972581922F92959F70990F6D
:102B7000892F880F880F890F2F70820F8093C502CD
:102B800020918B05822F90E08095909583709070B6
:102B9000009741F080E4809388058091D9028F5F8F
:102BA0008093C202216020938B050895DC01ED9192
:102BB000FC9111978581282F2F7082958F70853019
:102BC00009F460C0863060F0893009F469C08A3049
:102BD00030F18A3009F466C08B3009F442C00895A0
:102BE000823009F471C08430B9F18130C1F7868137
:102BF0009781820F911D23E0893592070CF06DC0FB
:102C00008137910514F481E790E0978386831896C5
:102C10008C911897826018968C9318970895863037
:102C2000F1F6222309F460C08685882309F45AC08E
:102C300081508687ED91FC9111978685882379F2E2
:102C4000858581508093C50280E4809388058091BA
:102C5000D9028093C2020895283008F041C0218B28
:102C600008958181821B8183803424F0ED91FC9151
:102C70001197118218968C911897816018968C93F1
:102C8000189708951696EC911697F0E0EE0FFF1F37
:102C9000EE0FFF1FEE0FFF1FE653FE4F2283089536
:102CA000118608958181820F818380342CF0ED910B
:102CB000FC9111978FE3818318968C91189781600E
:102CC00018968C931897089586819781821B910995
:102CD00023E0893592070CF493CF88E593E095CFF4
:102CE000118A08952687A6CF809188058587089543
:102CF000DC011796EC911797E03270F0E093C60272
:102D0000F0E0EE0FFF1FE857FC4F80819181909318
:102D10004703809346030895E0938C050895CF936D
:102D2000DF93DC01CD91DC911197EB8188858F5F7A
:102D30008887833020F0CD91DC9111971886CD9152
:102D4000DC91119788858130D9F0823019F48D811A
:102D50008F70E80FE43208F0E3E2F0E0EE0FFF1FBF
:102D6000E658FE4F808191819F838E8318968C91C7
:102D70001897826018968C931897DF91CF910895D9
:102D80008D8182958F70E80FE5CFFC01A081B18124
:102D900015968C91159716962D913C911797281B97
:102DA000310983E0293538076CF42137310514F4F3
:102DB00021E730E017963C932E931697808582602A
:102DC0008087089528E533E017963C932E93169755
:102DD0008085826080870895FC01A081B18115966D
:102DE0008C91159716962D913C911797280F311DB0
:102DF00083E0293538076CF42137310514F421E7D5
:102E000030E017963C932E931697808582608087DA
:102E1000089528E533E017963C932E931697808506
:102E2000826080870895FC01A081B18116968D9102
:102E30009C9117971B962D913C911C978217930795
:102E400028F51A962C911A97820F911D23E0893547
:102E500092070CF441C088E593E017969C938E93FB
:102E60001697A081B1811B968D919C911C97169607
:102E70002D913C9117978217930720F417969C93F6
:102E80008E9316978085826080870895281739076A
:102E9000C8F71A962C911A97821B910923E089355D
:102EA00092070CF58137910514F481E790E01796AD
:102EB0009C938E931697A081B1811B968D919C91C6
:102EC0001C9716962D913C91179728173907B0F249
:102ED0008085826080870895813791050CF0BDCF91
:102EE00081E790E0BACF88E593E0E1CF0E94131725
:102EF0000895CF93DF93FC01A081B18152962C916C
:102F00005297203234F0822F8F5352968C93A081A7
:102F1000B181822F881F8827881F922F990F990BC4
:102F20009227890FC82FD0E0C85BDE4F888150966A
:102F30009C915097989FC0011124880F892F881F5A
:102F4000990B919554969C938E93539727FF0DC0A0
:102F5000A081B18153968D919C91549790958195C4
:102F60009F4F54969C938E935397A081B181529614
:102F70008C9152971F969C911F97890F52968C9314
:102F80005297808582608087DF91CF910895CF939B
:102F9000DF93FC01A081B18152962C91529720328F
:102FA00034F0822F8F5352968C93A081B181822F5F
:102FB000881F8827881F922F990F990B9227890FB6
:102FC000C82FD0E0C85BDE4F888150969C91509707
:102FD000989FC0011124880F892F881F990B919504
:102FE00054969C938E93539727FF0DC0A081B18177
:102FF00053968D919C915497909581959F4F54969F
:103000009C938E935397A081B18152968C91529745
:103010001F969C911F97890F52968C93529780858B
:1030200082608087DF91CF910895CF93DF93EC0189
:103030000E941317CE010E947318DF91CF9108955B
:10304000CF93DF93FC01A081B18152962C915297CE
:10305000203234F0822F8F5352968C93A081B1810D
:10306000822F881F8827881F922F990F990B9227EC
:10307000890FC82FD0E0C85BDE4F888150969C91A5
:103080005097989FC0011124880F892F881F990B92
:10309000919554969C938E93539727FF0DC0A081D2
:1030A000B18153968D919C915497909581959F4FA6
:1030B00054969C938E935397A081B18152968C9194
:1030C00052971F969C911F97890F52968C938085DB
:1030D00082608087CF010E947318DF91CF9108959D
:1030E000089508950895FC01A081B18115968C91F1
:1030F0001597982F92959F708F70992369F4119668
:103100009C911197981B11969C93119797FD19C04C
:1031100080858160808708958823E9F711968C91D6
:103120001197890F11968C93119780348CF3A0819D
:10313000B1818FE311968C93119780858160808790
:10314000EACFA081B18111961C9211978085816090
:103150008087E1CF0E947318089508950895089517
:10316000FC01A081B18115968C911597982F9F70C5
:1031700082958F70893071F08C3009F008958091BC
:10318000C8028917D8F311961C9211978085816027
:103190008087089519968C9119978F5F19968C9353
:1031A0001997891758F3A081B18113968C911397C1
:1031B000848380858061808719961C921997089571
:1031C0000895F89480E880936100809361000E94E4
:1031D0005E0F82E084BD85BD9EE697BD99EA90931F
:1031E0008000909180009093800091E09093810006
:1031F00023EA2093B0009093B10080936E008AB1CF
:10320000886F8AB952988FEF84B93E9A1092C7029C
:1032100078948091C7028823E1F38091C70281509E
:103220008093C7020E940115F4CF1F920F920FB630
:103230000F921124BF92CF92DF92EF92FF920F93E1
:103240001F932F933F934F935F936F937F938F932E
:103250009F93AF93BF93CF93DF93EF93FF938091AF
:10326000400190E090938B0080938A00809141010F
:103270008093B4008091C201813009F4F1C1809142
:10328000C902813009F491C2B090C301D090C50148
:1032900060E070E0C0919205D0919305209709F00D
:1032A000F9C1C0E0D0E0CC24E090A405F090A505E1
:1032B000E114F10409F48FC08091A6059091A7054F
:1032C000A091A805B091A905292F3A2F4B2F55277A
:1032D0002E0D3F1D28593F4FF901B490EB2DE09082
:1032E000AC05EE2011F0F0E2CF2A2091AA05309132
:1032F000AB0540E050E0280F391F4A1F5B1F2093A9
:10330000A6053093A7054093A8055093A905809181
:10331000AE059091AF05A091B005B091B105281709
:1033200039074A075B07C8F08091B2059091B30551
:10333000A091B405B091B5050097A105B10509F4B8
:1033400095C2281B390B4A0B5B0B2093A6053093C3
:10335000A7054093A8055093A905A091AD05B0E03D
:103360000E2F112707FD10954E2D50E02FE330E072
:103370002A1B3B0B029FC001039F900D129F900DD3
:103380001124082E892F000C881F990B000C881F10
:10339000991F849F9001859F300D949F300D1124BB
:1033A000C20FD31F0A9FC0010B9F900D1A9F900D53
:1033B0001124082E892F000C881F990B000C881FE0
:1033C000991F849F9001859F300D949F300D11248B
:1033D000620F731FDE2EE090B605F090B705E11482
:1033E000F10409F48FC08091B8059091B905A091BE
:1033F000BA05B091BB05292F3A2F4B2F55272E0D1B
:103400003F1D28593F4FF901B490EB2DE090BE05C8
:10341000EE2011F0F0E4CF2A2091BC053091BD05DB
:1034200040E050E0280F391F4A1F5B1F2093B8056A
:103430003093B9054093BA055093BB058091C00500
:103440009091C105A091C205B091C3052817390715
:103450004A075B07C8F08091C4059091C505A0910B
:10346000C605B091C7050097A105B10509F4D4C1FF
:10347000281B390B4A0B5B0B2093B8053093B90519
:103480004093BA055093BB05A091BF05B0E00E2F45
:10349000112707FD10954E2D50E02FE330E02A1B39
:1034A0003B0B029FC001039F900D129F900D1124B2
:1034B000082E892F000C881F990B000C881F991F5C
:1034C000849F9001859F300D949F300D1124C20F71
:1034D000D31F0A9FC0010B9F900D1A9F900D1124BE
:1034E000082E892F000C881F990B000C881F991F2C
:1034F000849F9001859F300D949F300D1124620FA1
:10350000731FDE2E0091C8051091C9050115110524
:1035100009F490C08091CA059091CB05A091CC058B
:10352000B091CD05292F3A2F4B2F5527F801E20FE7
:10353000F31FE859FF4FD4900D2DE090D005EE20F9
:1035400019F020E8F22ECF282091CE053091CF053A
:1035500040E050E0280F391F4A1F5B1F2093CA0527
:103560003093CB054093CC055093CD058091D20587
:103570009091D305A091D405B091D50528173907AE
:103580004A075B07C8F08091D6059091D705A091B6
:10359000D805B091D9050097A105B10509F427C157
:1035A000281B390B4A0B5B0B2093CA053093CB05C4
:1035B0004093CC055093CD05E091D105F0E0A02FCC
:1035C000BB27A7FDB0954E2D50E02FE330E02E1B1A
:1035D0003F0BA29FC001A39F900DB29F900D11249D
:1035E000082E892F000C881F990B000C881F991F2B
:1035F000849F9001859F300D949F300D1124C20F40
:10360000D31FAE9FC001AF9F900DBE9F900D1124A0
:10361000082E892F000C881F990B000C881F991FFA
:10362000849F9001859F300D949F300D1124620F6F
:10363000731FB02EB092C301D092C501D093C701C1
:10364000C093C6017093C9016093C80180E8982FA8
:103650007E019F1990934001871B80934101CBB855
:10366000FF91EF91DF91CF91BF91AF919F918F919A
:103670007F916F915F914F913F912F911F910F918A
:10368000FF90EF90DF90CF90BF900F900FBE0F9004
:103690001F9018958091940590919505A09196059D
:1036A000B0919705292F3A2F4B2F5527FE01E20F96
:1036B000F31FE859FF4FE491BE2E20919A05222373
:1036C00009F092C0CC24409198055091990560E092
:1036D00070E0480F591F6A1F7B1F40939405509359
:1036E0009505609396057093970580919C05909140
:1036F0009D05A0919E05B0919F05481759076A073F
:103700007B07C8F08091A0059091A105A091A2052A
:10371000B091A3050097A105B10509F492C0481B1B
:10372000590B6A0B7B0B409394055093950560935E
:1037300096057093970540919B0550E06E2F772773
:1037400067FD709530E0AFE3B0E0A41BB50B6A9F56
:10375000C0016B9F900D7A9F900D1124082E892F28
:10376000000C881F990B000C881F991F829FE00195
:10377000839FD00D929FD00D1124649FC001659F3F
:10378000900D749F900D1124082E892F000C881F16
:10379000990B000C881F991F829FB001839F700DA9
:1037A000929F700D1124DE2E7FCD8091C3029091E7
:1037B000C40201969093C4028093C3022091C30275
:1037C0003091C4028091460390914703821793077A
:1037D00008F05ACD8091C7028F5F8093C702109284
:1037E000C4021092C30250CD40E1C42E6CCF10929F
:1037F000C9051092C8051092D2051092D3051092F7
:10380000D4051092D5051092D6051092D7051092C6
:10381000D8051092D905D0CE1092B7051092B605F2
:103820001092C0051092C1051092C2051092C305F6
:103830001092C4051092C5051092C6051092C705D6
:1038400023CE109293051092920510929C0510922F
:103850009D0510929E0510929F051092A005109252
:10386000A1051092A2051092A30565CF1092A5059F
:103870001092A4051092AE051092AF051092B005FB
:103880001092B1051092B2051092B3051092B405D2
:103890001092B50562CD0E94F90E882309F4FFCF7E
:1038A0000E94E118FCCFAA1BBB1B51E107C0AA1F55
:1038B000BB1FA617B70710F0A61BB70B881F991FD1
:1038C0005A95A9F780959095BC01CD010895A1E284
:1038D0001A2EAA1BBB1BFD010DC0AA1FBB1FEE1F8A
:1038E000FF1FA217B307E407F50720F0A21BB30BD5
:1038F000E40BF50B661F771F881F991F1A9469F751
:1039000060957095809590959B01AC01BD01CF01AC
:063910000895F894FFCFBA
:103916002C150000000034155F15000000000000A3
:103926008315000000009215A415AF15D61578165C
:103936008F16C516EC167617C7171518201800002F
:1039460000000000AA18000000000000B0180000E7
:103956007F7FD21C548D01000018314A61788DA1F9
:10396600B4C5D4E0EBF4FAFDFFFDFAF4EBE0D4C500
:10397600B4A18D78614A3118000000003F000000B4
:1039860010000000003FFF00000058032803FA0261
:10399600D002A60280025C023A021A02FC01E00191
:1039A600C501AC0194017D016801530140012E015E
:1039B6001D010D01FE00F000E200D600CA00BE00A7
:1039C600B400AA00A00097008F0087007F0078004F
:0239D60071007E
:00000001FF
