:100000000C948C110C94A9110C94A9110C94A911A5
:100010000C94A9110C94A9110C94A9110C94A91178
:100020000C94A9110C94A9110C94A9110C94A91168
:100030000C94A9110C94A9110C94391B0C94A911BE
:100040000C94A9110C94A9110C94A9110C94A91148
:100050000C94A9110C94A9110C94A9110C94A91138
:100060000C94A9110C94A9114156524D0A13000980
:100070006300086C000A6C180000002E02004000AB
:100080000000004201004000000000EC00004000C1
:100090000000003E0000400600380014000040064A
:1000A000000E002000004012000E000000000000C2
:1000B0000000002000004012000E00140000400666
:1000C000000E002000004012000E0006050700028E
:1000D000000304013108A263C405600C376110E11C
:1000E000FD0000FC0000600A37FD000061080060B0
:1000F0000600600C37FD000033081EFC0000601293
:1001000037FD0000310800600200600C37FD8002FE
:10011000FD8001FC0000600A37FD000063081E60DE
:100120000600601237FD80024D0800FC00006012DE
:1001300037FD0000FD8001600400600C375910009D
:1001400033081EFC0000600A376114005908006083
:100150000600600C374D1000FD8001600600601243
:1001600037591400FD8001600200600C2761100007
:100170004F081EFC0000600A274D14004C08006068
:1001800006006012276910005B081E6302206012DF
:10019000275B101A3108A2600400600C3760D01F82
:1001A000FD0000630220600A37FD00006108006066
:1001B0000600600C37FD000033081EFC00006012D2
:1001C00037FD0000310800600200600C37FD80023E
:1001D000FD8001FC0000600A37FD000063081E601E
:1001E0000600601237FD80024D0800FC000060121E
:1001F00037FD0000FD8001600400600C37611000D5
:1002000033081EFC0000600A3761140059080060C2
:100210000600600C37591000FD8001600600601276
:1002200037611400FD8001600200600C276110003E
:100230004F081EFC0000600A275914004C08006398
:1002400002206012277510005B081E6302206012F6
:100250002763101A3D08A26004006C0C476CD01F85
:10026000FD0000FC00006C0A47FD00006D08006006
:1002700006006C0C47FD00003F081EFC00006C12DD
:1002800047FD00003D08006002006C0C47FD800245
:10029000FD8001FC00006C0A47FD00006F081E6035
:1002A00006006C1247FD8002590800FC00006C1229
:1002B00047FD0000FD80016004006C0C4768D0021F
:1002C0003F081EFC00006C0A47FCC0026508006085
:1002D00006006C0C47FCC002FD80016006006C1239
:1002E00047FCC002FD8001600200680C58611000EC
:1002F0005B081EFC0000680A58FD000058080060FA
:100300000600681258FD000067081E63022068128C
:1003100058FD00002908A2600400580C475910003D
:10032000FD0000630220580A47FD80025908006062
:100330000600580C47FD80022B081EFC00005812D6
:1003400047611000290800600200580C47FD800238
:10035000FD8001FC0000580A47FD80025B081E601A
:1003600006005812476CD00F450800FC00005812D8
:1003700047FD0000FD8001600400580C47FD80022D
:100380002B081EFC0000580A47FD8002510800603F
:100390000600580C47611000FD80016006005812ED
:1003A000476D1400FD8001600200580C574D10008D
:1003B00047081EFC0000580A5761140044080063F7
:1003C000022058125759100053081E630220581279
:1003D000574D14003E88046004003C0C376D10E15A
:1003E000FE8004FC00003C0C37FD0000FE88046029
:1003F0000600FF0000FD0000FE8004FC0000FC0081
:1004000000FD0000FE88046002003C0C37FD800106
:10041000FE8004FC0000FF0000FD8001FE800460FF
:100420000600FC0000FD8001FE8804FC00003C0C7E
:1004300027FD8001FE8004600400FF0000FD8001B4
:10044000FE8004FC0000FC0000FD8001FE880460CA
:1004500006003C0C37FD8001FE8004FC0000FF001C
:1004600000FD80013688046002003C0C27791000F2
:10047000FE8004FC00003C0C276D1400FE88046024
:100480000600FF0000751000FE8004FC0000FC0068
:10049000007914003E88046004003C0C376D1000A5
:1004A000FE8004FC00003C0C37FD0000FE88046068
:1004B0000600FF0000FD0000FE8004FC0000FC00C0
:1004C00000FD0000FE88046002003C0C37FD800146
:1004D000FE8004FC0000FF0000FD8001FE8004603F
:1004E0000600FC0000FD8001FE8804FC00003C0CBE
:1004F00027FD8001FE8004600400FF0000FD8001F4
:10050000FE8004FC0000FC0000FD8001FE88046009
:1005100006003C0C37FD8001FE8004FC0000FF005B
:1005200000FD80013688046002003C0C2765100045
:10053000FE8004FC00003C0C276D1400FE88046063
:100540000600FF0000791000FE8004FC0000FC00A3
:10055000006514004A8804600400480C47891000B4
:10056000FE8004FC0000480C47FD0000FE8804608B
:100570000600FF0000FD0000FE8004FC0000FC00FF
:1005800000FD0000FE8804600200480C47FD800169
:10059000FE8004FC0000FF0000FD8001FE8004607E
:1005A0000600FC0000FD8001FE8804FC0000440CF5
:1005B00058FD8001FE8004600400FF0000FD800102
:1005C000FE8004FC0000FC0000FD8001FE88046049
:1005D0000600480C47FD8001FE8004FC0000FF007F
:1005E00000FD8001FE8804600200440C5879100070
:1005F000FE8004FC0000440C58FD0000FE880460EE
:100600000600FF0000FD8002FE8004FC0000FC00EC
:1006100000FD8002368804600400340C4775100029
:10062000FE8004FC0000340C47FD0000FE880460DE
:100630000600FF0000FD0000FE8004FC0000FC003E
:1006400000FD0000FE8804600200340C47FD8001BC
:10065000FE8004FC0000FF0000FD8001FE800460BD
:100660000600FC0000FD8001FE8804638694340CC3
:1006700057FD800158880A600400FF0000FC8004D8
:10068000FC800AFC0000FC0000FC8004FC800A6086
:100690000200340C47FF0000FC800AFC0000FF0051
:1006A00000FC0000FC800A600400280C576D10005C
:1006B000FC800AFC0000280C577D1400FC800A60B6
:1006C0000200FF0000691000FC800A62C203FC0007
:1006D000006D14003108A2600400600C376110E165
:1006E000FD0000FC0000600A37FD000061080060AA
:1006F0000600600C37FD000033081EFC000060128D
:1007000037FD0000310800600200600C37FD8002F8
:10071000FD8001FC0000600A37FD000063081E60D8
:100720000600601237FD80024D0800FC00006012D8
:1007300037FD0000FD8001600400600C3759100097
:1007400033081EFC0000600A37611400590800607D
:100750000600600C374D1000FD800160060060123D
:1007600037591400FD8001600200600C2761100001
:100770004F081EFC0000600A274D14004C08006062
:1007800006006012276910005B081E6302206012D9
:10079000275B101A3108A2600400600C3760D01F7C
:1007A000FD0000630220600A37FD00006108006060
:1007B0000600600C37FD000033081EFC00006012CC
:1007C00037FD0000310800600200600C37FD800238
:1007D000FD8001FC0000600A37FD000063081E6018
:1007E0000600601237FD80024D0800FC0000601218
:1007F00037FD0000FD8001600400600C37611000CF
:1008000033081EFC0000600A3761140059080060BC
:100810000600600C37591000FD8001600600601270
:1008200037611400FD8001600200600C276D10002C
:100830004F081EFC0000600A275914004C08006392
:1008400002206012278910005B081E6302206012DC
:10085000276F101A3D08A26004006C0C477D100041
:10086000FD0000FC00006C0A47FD00006D08006000
:1008700006006C0C47FD00003F081EFC00006C12D7
:1008800047FD00003D08006002006C0C47FD80023F
:10089000FD8001FC00006C0A47FD00006F081E602F
:1008A00006006C1247FD8002590800FC00006C1223
:1008B00047FD0000FD80016004006C0C47751000CE
:1008C0003F081EFC00006C0A47FD00006508006040
:1008D00006006C0C47FD0000FD80016006006C12F4
:1008E00047FD0000FD8001600200680C586D10009B
:1008F0005B081EFC0000680A58FD000058080060F4
:100900000600681258FD000067081E630220681286
:1009100058FD00002908A2600400580C4769100027
:10092000FD0000630220580A47FD8002590800605C
:100930000600580C47FD80022B081EFC00005812D0
:10094000476D1000290800600200580C47FD800226
:10095000FD8001FC0000580A47FD80025B081E6014
:10096000060058124774D00F450800FC00005812CA
:1009700047FD0000FD8001600400580C47FD800227
:100980002B081EFC0000580A47FD80025108006039
:100990000600580C47611000FD80016006005812E7
:1009A00047751400FD8001600200580C576D10005F
:1009B00047081EFC0000580A577D140044080063D5
:1009C000022058125769100053081E630220581263
:1009D000576D14003108A2600400600C376110E10B
:1009E000FD0000FC0000600A37FD000061080060A7
:1009F0000600600C37FD000033081EFC000060128A
:100A000037FD0000310800600200600C37FD8002F5
:100A1000FD8001FC0000600A37FD000063081E60D5
:100A20000600601237FD80024D0800FC00006012D5
:100A300037FD0000FD8001600400600C3759100094
:100A400033081EFC0000600A37611400590800607A
:100A50000600600C374D1000FD800160060060123A
:100A600037591400FD8001600200600C27611000FE
:100A70004F081EFC0000600A274D14004C0800605F
:100A800006006012276910005B081E6302206012D6
:100A9000275B101A3108A2600400600C3760D01F79
:100AA000FD0000630220600A37FD0000610800605D
:100AB0000600600C37FD000033081EFC00006012C9
:100AC00037FD0000310800600200600C37FD800235
:100AD000FD8001FC0000600A37FD000063081E6015
:100AE0000600601237FD80024D0800FC0000601215
:100AF00037FD0000FD8001600400600C37611000CC
:100B000033081EFC0000600A3761140059080060B9
:100B10000600600C37591000FD800160060060126D
:100B200037611400FD8001600200600C276D100029
:100B30004F081EFC0000600A275914004C0800638F
:100B400002206012278910005B081E6302206012D9
:100B5000276F101A3D08A26004006C0C477D10003E
:100B6000FD0000FC00006C0A47FD00006D080060FD
:100B700006006C0C47FD00003F081EFC00006C12D4
:100B800047FD00003D08006002006C0C47FD80023C
:100B9000FD8001FC00006C0A47FD00006F081E602C
:100BA00006006C1247FD8002590800FC00006C1220
:100BB00047FD0000FD80016004006C0C47751000CB
:100BC0003F081EFC00006C0A47FD0000650800603D
:100BD00006006C0C47FD0000FD80016006006C12F1
:100BE00047FD0000FD8001600200680C586D100098
:100BF0005B081EFC0000680A58FD000058080060F1
:100C00000600681258FD000067081E62820A68121A
:100C100058FD00002908A2600400580C4769100024
:100C2000FD0000FC0000580A47FD800259080060E2
:100C30000200580C47FD80022B081EFC00005812D1
:100C4000476D1000290800600400580C47FD800221
:100C5000FD8001FC0000580A47FD80025B081EFC75
:100C6000000058124774D00F450800FC00005812CD
:100C700047FD0000FD8001600200580C47FC800425
:100C80002B081EFC0000580A47FC800450880A60AC
:100C90000400580C47FF0000FC800AFC00005812BA
:100CA00047FC0000FC800A600400580C57781000D4
:100CB000FC800AFC0000580A57741400FC800A6289
:100CC000820A581257741000FC800A62820A581275
:100CD000577814003E88046004003C0C376D10E126
:100CE000FE8004FC00003C0C37FD0000FE88046020
:100CF0000600FF0000FD0000FE8004FC0000FC0078
:100D000000FD0000FE88046002003C0C37FD8001FD
:100D1000FE8004FC0000FF0000FD8001FE800460F6
:100D20000600FC0000FD8001FE8804FC00003C0C75
:100D300027FD8001FE8004600400FF0000FD8001AB
:100D4000FE8004FC0000FC0000FD8001FE880460C1
:100D500006003C0C37FD8001FE8004FC0000FF0013
:100D600000FD80013688046002003C0C27791000E9
:100D7000FE8004FC00003C0C276D1400FE8804601B
:100D80000600FF0000751000FE8004FC0000FC005F
:100D9000007914003E88046004003C0C376D10009C
:100DA000FE8004FC00003C0C37FD0000FE8804605F
:100DB0000600FF0000FD0000FE8004FC0000FC00B7
:100DC00000FD0000FE88046002003C0C37FD80013D
:100DD000FE8004FC0000FF0000FD8001FE80046036
:100DE0000600FC0000FD8001FE8804FC00003C0CB5
:100DF00027FD8001FE8004600400FF0000FD8001EB
:100E0000FE8004FC0000FC0000FD8001FE88046000
:100E100006003C0C37FD8001FE8004FC0000FF0052
:100E200000FD80013688046002003C0C276510003C
:100E3000FE8004FC00003C0C276D1400FE8804605A
:100E40000600FF00006D1000FE8004FC0000FC00A6
:100E5000006514004A8804600400480C47791000BB
:100E6000FE8004FC0000480C47FD0000FE88046082
:100E70000600FF0000FD0000FE8004FC0000FC00F6
:100E800000FD0000FE8804600200480C47FD800160
:100E9000FE8004FC0000FF0000FD8001FE80046075
:100EA0000600FC0000FD8001FE8804FC0000440CEC
:100EB00058FD8001FE8004600400FF0000FD8001F9
:100EC000FE8004FC0000FC0000FD8001FE88046040
:100ED0000600480C47FD8001FE8004FC0000FF0076
:100EE00000FD8001468804600200440C5874D00F55
:100EF000FE8004FC0000440C58FD0000FE880460E5
:100F00000600FF0000FD8002FE8004FC0000FC00E3
:100F100000FD8002368804600400340C4765100030
:100F2000FE8004FC0000340C47FD0000FE880460D5
:100F30000600FF0000FD0000FE8004FC0000FC0035
:100F400000FD0000FE8804600200340C47FD8001B3
:100F5000FE8004FC0000FF0000FD8001FE800460B4
:100F60000600FC0000FD8001FE8804FC0000340C3B
:100F700057FD8001FE8004600400FF0000FD800139
:100F8000FE8004FC0000FC0000FD8001FE8804607F
:100F90000600340C47FD8001FE8004FC0000FF00C9
:100FA00000FD80012A8804600200340C577910008B
:100FB000FE8004FC0000340C576514003688046081
:100FC0000200FF0000751000FE8004FC0000FC0021
:100FD000007914003108A2600400600C37FC0000A6
:100FE000FD0000FC0000600A37FC000061080060A2
:100FF0000600600C37FC000033081EFC0000601285
:1010000037FC0000310800600200600C37FC000073
:10101000FD8001FC0000600A37FC000063081E60D0
:101020000600601237FC00004D0800FC0000601252
:1010300037FC0000FD8001600400600C37FC0000FC
:1010400033081EFC0000600A37FC000059080060ED
:101050000600600C37FC0000FD8001FC00006012FF
:1010600037FC0000FD8001600200600C27FC0000DE
:101070004F081EFC0000600A27FC00004C080060BE
:101080000600601227FC00005B081EFC00006012D6
:1010900027FC00003108A2600400600C37FC00004F
:1010A000FD0000FC0000600A37FC000061080060E1
:1010B0000600600C37FC000033081EFC00006012C4
:1010C00037FC0000310800600200600C37FC0000B3
:1010D000FD8001FC0000600A37FC000063081E6010
:1010E0000600601237FC00004D0800FC0000601292
:1010F00037FC0000FD8001600400600C37FC00003C
:1011000033081EFC0000600A37FC0000590800602C
:101110000600600C37FC0000FD8001FC000060123E
:1011200037FC0000FD8001600200600C27FC00001D
:101130004F081EFC0000600A27FC00004C080060FD
:101140000600601227FC00005B081EFC0000601215
:1011500027FC00003D08A26004006C0C47FC000066
:10116000FD0000FC00006C0A47FC00006D080060F8
:1011700006006C0C47FC00003F081EFC00006C12CF
:1011800047FC00003D08006002006C0C47FC0000BA
:10119000FD8001FC00006C0A47FC00006F081E6027
:1011A00006006C1247FC0000590800FC00006C129D
:1011B00047FC0000FD80016004006C0C47FC00004F
:1011C0003F081EFC00006C0A47FC00006508006038
:1011D00006006C0C47FC0000FD8001FC00006C1256
:1011E00047FC0000FD8001600200680C58FC000014
:1011F0005B081EFC0000680A58FC000058080060EC
:101200000600681258FC000067081EFC0000681207
:1012100058FC00002908A2600400580C47FC00009C
:10122000FD0000FC0000580A47FC0000590800605F
:101230000600580C47FC00002B081EFC000058124A
:1012400047FC0000290800600200580C47FC000021
:10125000FD8001FC0000580A47FC00005B081E608E
:101260000600581247FC0000450800FC0000581218
:1012700047FC0000FD8001600400580C47FC0000A2
:101280002B081EFC0000580A47FC000051080060B3
:101290000600580C47FC0000FD8001FC00005812BD
:1012A00047FC0000FD8001600200580C57FC000064
:1012B00047081EFC0000580A57FC00004408006064
:1012C0000200581257FC000053081EFC0000581280
:1012D00057FC00003108A263C405FC0000FC0000BC
:1012E000FD0000FC0000FC0000FC00006108006044
:1012F0000600FC0000FC000033081EFC0000FC009F
:1013000000FC0000310800600200FC0000FC00004E
:10131000FD8001FC0000FC0000FC000063081E6072
:101320000600FC0000FC00004D0800638692FC00F3
:1013300000FC0000FD8001600400FC0000FC0000D7
:1013400033081EFC0000FC0000FC000058880A6006
:101350000200FC0000FC0000FC800AFC0000FC0015
:1013600000FC0000FC800A600400FC0000FC00009F
:10137000FC800AFC0000FC0000FC0000FC800A620B
:10138000820AFC0000FC0000FC800A638294FF409B
:1013900000FC0000FC0000FC0000FC0000FC000061
:1013A000FC0000FC0000FC0000FC0000FC0000FC55
:1013B0000000FC0000FC0000FC0000FC0000FC0041
:1013C00000FC0000FC0000FC0000FC0000FC000031
:1013D000FC0000FC0000FC0000FC0000FC0000FC25
:1013E0000000FC0000FC0000FC0000FC0000FC0011
:1013F00000FC0000FC0000FC0000FC0000FC000001
:10140000FC0000FC0000FC0000FC0000FC0000FCF4
:101410000000FC0000FC0000FC0000FC0000FC00E0
:1014200000FC0000FC0000FC0000FC0000FC0000D0
:10143000FC0000FC0000FC0000FC0000FC0000FCC4
:101440000000FC0000FC0000FC0000FC0000FC00B0
:1014500000FC0000FC0000FC0000FC0000FC0000A0
:10146000FC0000FC0000FC0000FC0000FC0000FC94
:101470000000FC0000FC0000FC0000FC0000FC0080
:1014800000FC0000FC0000FC0000FC0000FC000070
:10149000FC0000FC0000FC0000FC0000FC0000FC64
:1014A0000000FC0000FC0000FC0000FC0000FC0050
:1014B00000FC0000FC0000FC0000FC0000FC000040
:1014C000FC0000FC0000FC0000FC0000FC0000FC34
:1014D0000000FC0000FC0000FC0000FC0000FC0020
:1014E00000FC0000FC0000FC0000FC0000FC000010
:1014F000FC0000FC0000FC0000FC0000FC0000FC04
:101500000000FC0000FC0000FC0000FC0000FC00EF
:1015100000FC0000FC0000FC0000FC0000FC0000DF
:10152000FC0000FC0000FC0000FC0000FC0000FCD3
:101530000000FC0000FC0000FC0000FC0000FC00BF
:1015400000FC0000FC0000FC0000FC0000FC0000AF
:10155000FC0000FC0000FC0000FC0000FC0000FCA3
:101560000000FC0000FC0000FC0000FC0000FC008F
:1015700000FC0000FC0000FC0000FC0000FC00007F
:10158000FC0000FC0000FC0000FC0000FC0000FC73
:101590000000FC0000FC0000FC0000FC0000FC005F
:1015A00000FC0000FC0000FC0000FC0000FC00004F
:1015B000FC0000FC0000FC0000FC0000FC0000FC43
:1015C0000000FC0000FC0000FC0000FC0000FC002F
:1015D00000FC00003108A2600400600C37FC000031
:1015E000FD0000FC0000600A37FC0000610800609C
:1015F0000600600C37FC000033081EFC000060127F
:1016000037FC0000310800600200600C37FC00006D
:10161000FD8001FC0000600A37FC000063081E60CA
:101620000600601237FC00004D0800FC000060124C
:1016300037FC0000FD8001600400600C37FC0000F6
:1016400033081EFC0000600A37FC000059080060E7
:101650000600600C37FC0000FD8001FC00006012F9
:1016600037FC0000FD8001600200600C27FC0000D8
:101670004F081EFC0000600A27FC00004C080060B8
:101680000600601227FC00005B081EFC00006012D0
:1016900027FC00003108A2600400600C37FC000049
:1016A000FD0000FC0000600A37FC000061080060DB
:1016B0000600600C37FC000033081EFC00006012BE
:1016C00037FC0000310800600200600C37FC0000AD
:1016D000FD8001FC0000600A37FC000063081E600A
:1016E0000600601237FC00004D0800FC000060128C
:1016F00037FC0000FD8001600400600C37FC000036
:1017000033081EFC0000600A37FC00005908006026
:101710000600600C37FC0000FD8001FC0000601238
:1017200037FC0000FD8001600200600C27FC000017
:101730004F081EFC0000600A27FC00004C080060F7
:101740000600601227FC00005B081EFC000060120F
:1017500027FC00003D08A26004006C0C47FC000060
:10176000FD0000FC00006C0A47FC00006D080060F2
:1017700006006C0C47FC00003F081EFC00006C12C9
:1017800047FC00003D08006002006C0C47FC0000B4
:10179000FD8001FC00006C0A47FC00006F081E6021
:1017A00006006C1247FC0000590800FC00006C1297
:1017B00047FC0000FD80016004006C0C47FC000049
:1017C0003F081EFC00006C0A47FC00006508006032
:1017D00006006C0C47FC0000FD8001FC00006C1250
:1017E00047FC0000FD8001600200680C58FC00000E
:1017F0005B081EFC0000680A58FC000058080060E6
:101800000600681258FC000067081EFC0000681201
:1018100058FC00002908A2600400580C47FC000096
:10182000FD0000FC0000580A47FC00005908006059
:101830000600580C47FC00002B081EFC0000581244
:1018400047FC0000290800600200580C47FC00001B
:10185000FD8001FC0000580A47FC00005B081E6088
:101860000600581247FC0000450800638694581291
:1018700047FC0000FD8001600400580C47FC00009C
:101880002B081EFC0000580A47FC000051080060AD
:101890000200580C47611000FD8001FC0000581246
:1018A00047751400FD8001600400580C576D10004E
:1018B00047081EFC0000580A577D140044080060C9
:1018C000020058125769100053081E62C2035812D2
:1018D000576D14000000FAF8FBF8FAF400FAFAFB6E
:1018E000FAF7FFFBFEFEFA01FBFEFDF4F4D5AC6B4C
:1018F0003DAECBCDCD6BDA935A6B1F93FA6B6B6B0E
:10190000DD2C64399AE06B6B43FD01483DC7D2DAA8
:101910003244D3FA35F3FBBCD53B13939793C83BC2
:10192000B793DE0193936B6B934F6B9B9393936B86
:101930006B6B9393A5934F6BC293936B6B93934491
:101940002911F293C76B6BEC93946B6B2CA5BC6461
:101950006B6B374FC06B6B6B2A255C6B6B406B25D9
:101960006B664F6B6B0B5C226B35581AE552582532
:101970002AE153F0CC512CEF22D1CB93F70CEB336F
:10198000D6939393931BADC693DC989393939393C1
:101990009393939393939393939393939393939317
:1019A00093939393939393939393A7A9BD09BCCADD
:1019B00013C7E72DFB140F0D3D6B43395E6B6B674F
:1019C0006B6B6B6B6B6B6B6B6B6B6B6B6B6B6B6B67
:1019D0006B6B6B6B6B6B6B6B6B6B6B6B6B6B6B6B57
:1019E0006B6B6B6B6B6B6B4E6B446B4F445A551D43
:1019F0003E1D1DE9E21DE3CF0193EB9EAAD2939316
:101A0000B4939393AC93939393939393939393936C
:101A10009393939393939393939393939393939396
:101A20009393939393939393939393AA93939FA94D
:101A300093BCADB093A7A1169300A10CB6F205110B
:101A4000BF26C713263C3012C2E46B6B005AEC3839
:101A5000446B6B3E5E282D6B6B6B6B5D6B526B6BDF
:101A6000676B6B616B586B6B6B6B6B586B6B6B67FE
:101A70005D6B6B5D6B6B6B48386B6B6B6B6B51337A
:101A80006B431F6B6BF46B60ED465D556BE1380586
:101A9000E96B46E2FFF3EF1D055132DC0BE0DE128D
:101AA0003093D80C4FDED5AED900CAF405F09305BB
:101AB000F2DEEDCC04E2129FED1C30EB0CFE931134
:101AC000C24D050508E2FB11D3F64405FBBCDEFD63
:101AD000D844DDA3E5D513EF93F4EFB093A294CBF4
:101AE000A3B693CE9393E997939393B093A59393CF
:101AF00093939393B7939393939393939393939392
:101B000093939393939393939393939393AC93938C
:101B10009393BC9393A7939FAAEB93B10B9ECEF79D
:101B2000C70714C8145E1BF7184B2537483F6B2AAC
:101B30006B6B6B6B2D6B6B6B6B6B6B6B6B6B6B6B33
:101B40006B6B6B6B6B6B6B6B6B6B6B6B6B6B6B6BE5
:101B50006B6B6B6B6B6B6B6B6B6B6B6B6B6B6B6BD5
:101B60006B6B6B6B6B6B6B6B4E636B686B376B6B21
:101B7000082E6B600534483B393922071B48053372
:101B80002EFE211622FF3C0FEF01323EED132207FD
:101B90000B3DF70D14140B23121A2AFB1B1C1A0FF2
:101BA0001D080DE2431A1100EDEF221CDAFBF3F6DB
:101BB000EFE9CEE913EFCCD9E3D1B5C0BDE0BCE489
:101BC000B693BFD9A5C6A994B0B19F93A1AD949483
:101BD000ADA2AEB293939B939793B29A9B93939338
:101BE0009C9C9393939A93BC9393A19398B593934E
:101BF00093A3B0949393A6939F9893B99393BC9F08
:101C0000939B93AE9E9393B793BCA99393A6CF9FB8
:101C100093BCA593ACB4B8A6BD9FD9D7BBA7B9AEAA
:101C2000C6E9E7C4D9EDC7D5CDEB02FBF0BB021284
:101C3000E9FE1EEF1A230009283917114F4D4B38C2
:101C40002A496B4B446B4A3E586B6B6B605A6B6B0B
:101C50006B67556B6B656B6B6B6B6B6B6B6B6B69F6
:101C60006B6B6B6B6B53616B6B6B6B56666B6B5516
:101C70006B68555D6B6B4938534D29604F350C4887
:101C8000403426F22C290711284AEBF038FA3C0898
:101C9000D6231CD918FF0902E5E82D21F2C3E10083
:101CA00007ECF4EBF8E007F4FACDDEEDE8FED2EC59
:101CB000E0E110F0DED2C8EFFAEFDACEDEF2FED3CA
:101CC000C7F4E518E2A2F037E3B800F313EFEDF73D
:101CD000FDE3FBFED5080100110802F2F405E3055F
:101CE0002DF2E427EC1213D2F630FDDDE80DFF0BE8
:101CF000EB0BE400F2FDE20211EDCAD7FD08F8BCDF
:101D0000F4E5E8F4D2D1DDEFC1D6D1DEA7CBCDCE5C
:101D1000C3AEB2C8B9B4C6B5B0C2969CC7B0ADCD5B
:101D200093BFB1A793A7E3A7A5A7C39CB6D3C0B0A1
:101D300000000000FC303E00A5D63021E8B1CA0DFD
:101D4000504A3A00E5E4CB1618E5C4CA1EACB0FC14
:101D5000FC72298C4B3032138C968C4A4B304B8C56
:101D60005799FCCB8C7232A957B18C30728CCA72E5
:101D7000D8946372998CCA721899FC7272998CFC0F
:101D80007272328C8CFC7272728C8CFC7272720069
:101D90008C8C8C8CBC305A723E998CBC63727205F0
:101DA000998C96FC504A5846253E00EBC38C8C8C8F
:101DB000FC6372726535D28C8C8C8CCAF025180B42
:101DC000E98CA4A4DD18B88C8C8C8C8C960A304AD3
:101DD00050726F1800BCE9B7DEFBC1C9A8E5D61583
:101DE0005D727272687272725F202832F0F90315A8
:101DF0001D0212253D51727272727272727272728B
:101E0000727272654B1EF7EE05FCEEDCD8E0FC0545
:101E10000ADEF7FC300B00E4F1E8E40018EEEBFC1E
:101E2000DED18C8C8C8C8C8C8C8C8C8C8C8C8C8C5B
:101E30008C948C8C8C8C8C99A4BCA9A8B9B6B8AFA6
:101E4000AF96A2A28C8C8C8E8C8C8C8C8C8C8C8C77
:101E50008C8C8CA6A4B1CAD6D806FC2129284D5357
:101E60006370727272727272727272727272727263
:101E70007272727272727272727272727272727242
:101E80007272727272727272727072727272657241
:101E90006B726C636F70655D3B4846433A28252F33
:101EA0000A1810F10000EEDBE8BFD8C1BBB1B1A445
:101EB0009E999F8C8C8C8C8C8C8C8C8C8C8C8C8C30
:101EC0008C8C8C8C8C8C8C8C8C8C8C8C8C8C8C8C52
:101ED0008C8C8C8C8C8C8C8C8C8C8C8C8C8C8C8C42
:101EE0008C8C8C8C8C8C8C8C8C8C8C8C8C8C8C8C32
:101EF0008C969996ACCAC6D3E0E5F30D151D372B29
:101F0000464B626363727272727272727272727232
:101F100072727272727272727272727272727272A1
:101F20007272727272727272727272727272727291
:101F30007272727272727272727272727272727281
:101F4000727272726A606750514D38353520200EBA
:101F50000B00F9EBEBD5D3CAC9B9C1B7B1A29E96B4
:101F60008C9491918C8C8C8C8C8C8C8C8C8C8C8C9F
:101F70008C8C8C8C8C8C8C8C8C8C8C8C8C8C8C8CA1
:101F80008C8C8C8C8C8C8C8C8C8C8C8C8C8C8C8C91
:101F90008C8C8C8C8C8C8C8C8C8C8C8C8C8C8C8C81
:101FA0008C8C8C8C8C8C8C8C8C8C8C8C8E96949E4B
:101FB000A4A8AFB6000000FF0000000000FE00EF84
:101FC00008FEDE2AE320D2131500D813F320F5FA19
:101FD00000F319F10013D8200BF300FE00DC5A992E
:101FE0005A00B53600FEE90BED34C64BB041DEE2D7
:101FF000659B43D12DDC21D513F80BF321F3D64794
:10200000C74FC1090921D10BFE0BFEE92000DAFE02
:1020100033D227CB32E700FE2DEDC652E92BDEDCB2
:10202000171600DC1603EADE2BE91CBC52E9FCFEA5
:1020300000FE16BA5CC00303FE2DC6022B00DC2195
:10204000F30BFECF41E900DE25E92BAB63D2E02B99
:102050000BEADC141003D818E432D8FE0F16CB18A4
:10206000F81006C8569E6AD22BE3ED092DD6E92B4F
:1020700000FE0510C12B05D134E00F00FE0009D28F
:102080003ED214003EA91E062DCEED2110DEF31027
:10209000EF27D2030316D9061400F30014E9FE0B50
:1020A00000F3EBFE16E2EF0318F3F414D643BA364E
:1020B000E914FBED090BEDF143A6202DD3F114003B
:1020C000E225DE2BD22BE9F81A00D8FE43A8FE5AEF
:1020D000DC00FE00FE00F30BFEDEFE16E914E3FE5C
:1020E0002100D2201000B558E906E7FA20E9FE2DBC
:1020F000AF34F4FEF807E725D82000FE00E710FE15
:102100000009DC34D603090BCB2BE903FE03DE0FF9
:1021100014EDFEFE00FEE62B00CB0736E9F3F109D5
:102120001CDEDC5AB122FC00E71013D6FE27E9EDD5
:102130002BD22000FEFEDE2BDE1400F3FA30B32B90
:10214000E922D627DE1AF40BDA2000ED36B13DE2A3
:1021500016D32BFCE0FE0BF316E70BE73ADEE92083
:10216000EB14DE2BD222FAD634E0FE001ADEFE1685
:10217000E30BFCFEFA27CBFE27F4F4FEF12FD91770
:10218000DE0720E3F821F4FEF1090BF30000000064
:10219000ACACA7A7A4A4A4A4A4A4A4A4A4A4A4A4E9
:1021A000A4A4A4A4A4A4A4A4A4A4A4A4A4A4A4A4EF
:1021B000A4A4A4A4A4A4A4A4A4A4A4A4A4A4A4A4DF
:1021C000A4A4A4A4A4A4A4A4A4A44F4F5A5A5A5AA1
:1021D0005A5A5A5A5A5A5A5A5A5A5A5A5A5A5A5A5F
:1021E0005A5A55554F4F4B4B464641413C3C36366B
:1021F00031312B2B262620201A1A14140F0F0A0A0D
:1022000005050000FAFAF5F500000000000B181BA8
:1022100017FEE3073A1BE5ED00FFFCFDFCF3E6ECDF
:10222000F5061606EC04250FED083117EE00210D1A
:1022300000000000D3D3D0D0CFCFCECECECECECEE6
:10224000CECECECECECECECECECECECECECECECEAE
:10225000CECECECECECECECECECECECECECECECE9E
:10226000CECECECECECECECECECECECECECE2A2AD6
:1022700000009C36F49ACC9A9C9A9A9A9A9A9A9AC6
:102280009A9A9A9A9A9A9A9A9A9A9A9A9A9A9A9AAE
:102290009A9A9A9A9A9A9A9A9A9A9A9A9A9A9A9A9E
:1022A0009A9A9A9A9A9A9A9A9C9CCAB044EE00FE7C
:1022B000000000000003070806FFF7021108F7FA04
:1022C00000FFFEFFFEFCF8FAFC010601FA010B0418
:1022D000FA020E06FA0009030000D815FBD7EBD767
:1022E000D8D7D7D7D7D7D7D7D7D7D7D7D7D7D7D77D
:1022F000D7D7D7D7D7D7D7D7D7D7D7D7D7D7D7D76E
:10230000D7D7D7D7D7D7D7D7D7D7D7D7D7D7D7D75D
:10231000D8D8EAE01BF800FF11241FBECFEFD8E0A9
:10232000DEBFCDBF11E0A0E0B1E0E0EDF8E302C018
:1023300005900D92AE39B107D9F715E0AEE9B1E0DD
:1023400001C01D92A63AB107E1F70E94471C0C9408
:10235000661C0C9400001F93DF93CF9300D000D035
:102360000F92CDB7DEB79D838C838C819D81885978
:102370009F4F9A83898389819A81FC0114911B83E1
:102380008B810F900F900F900F900F90CF91DF9156
:102390001F9108951F93DF93CF9300D000D00F9229
:1023A000CDB7DEB79D838C838C819D8188599F4FEB
:1023B0009A83898389819A81FC0114911B838B8183
:1023C0000F900F900F900F900F90CF91DF911F9172
:1023D0000895EF92FF920F931F93DF93CF9300D056
:1023E00000D000D0CDB7DEB79E838D838D819E81D6
:1023F00088599F4F9A83898389819A818C01F8013A
:10240000E590F4908F01FC82EB821A8309838B8123
:102410009C8126960FB6F894DEBF0FBECDBFCF913C
:10242000DF911F910F91FF90EF9008950F931F93ED
:10243000DF93CF93CDB7DEB72A970FB6F894DEBF00
:102440000FBECDBF9E838D8378876F835A87498760
:102450008F8198859C838B831A82198216C02B8169
:102460003C8189819A818901080F191F2D813E8144
:1024700089819A81820F931F0E94AB11F80180839A
:1024800089819A8101969A83898329813A818985F4
:102490009A852817390718F32A960FB6F894DEBFE5
:1024A0000FBECDBFCF91DF911F910F910895DF93A4
:1024B000CF9300D000D0CDB7DEB780E090E09E0192
:1024C0002F5F3F4FB90144E050E00E94161289810E
:1024D000813459F48A81863541F48B81823529F41F
:1024E0008C818D3411F481E001C080E00F900F9059
:1024F0000F900F90CF91DF910895DF93CF9300D08D
:1025000000D0CDB7DEB79A8389836B834C839091DB
:10251000A3028B81891710F080E02FC089819A81F6
:102520002B81FC0120832091A4023091A5028B8194
:10253000682F70E040E053E0649FC001659F900DFC
:10254000749F900D1124280F391F89819A81FC01F5
:10255000328321838C81282F30E0C901880F991F95
:10256000820F931F880F991F880F991F9C018981E3
:102570009A81FC013483238381E00F900F900F90A8
:102580000F90CF91DF910895DF93CF9300D00F92FA
:10259000CDB7DEB72DE932E084E090E0B9014FE03D
:1025A00050E00E9416128091A1029091A202209107
:1025B000A002222F30E04DED52E0BA01A9010E94A5
:1025C000161280919E0290919F0220919D02222FCF
:1025D00030E0220F331F220F331F220F331F4EE92B
:1025E00051E0BA01A9010E9416128091A7029091B0
:1025F000A8029B838A83198225C08981882F90E055
:10260000880F991F88599A4F2A813B81FC01318399
:1026100020838981882F90E0880F991F880F991F48
:10262000880F991F82569E4FFC0180819181880FEF
:10263000991F2A813B81820F931F9B838A83898103
:102640008F5F898390919D0289818917B0F21982E9
:1026500020C08981E82FF0E08981882F90E0809662
:10266000880F991F25E030E0B9010E94521C9B01A0
:1026700080E09DE7B9010E94521C9B01CF01880FA9
:10268000991F835A9C4FFC013183208389818F5F7E
:1026900089838981803EE8F280E09FE69093AE02D4
:1026A0008093AD0280E060E00E944B168FEF809334
:1026B0001D0586E080939B0286E080931E05809135
:1026C0001704909118049093DC028093DB028FE34F
:1026D0008093B1028FEF9FEF9093B9028093B8027D
:1026E0008FE38093BC028FEF9FEF9093C40280939F
:1026F000C3028FE38093C7028FEF9FEF9093CF02C7
:102700008093CE028FE38093D2028FEF9FEF90935E
:10271000DA028093D90210922505109224051092B6
:102720003605109235051092470510924605109215
:1027300058051092570581E080939C020F900F90EE
:102740000F90CF91DF910895DF93CF93CDB7DEB790
:1027500027970FB6F894DEBF0FBECDBF9D838C8345
:102760007F836E838C819D819E012F5F3F4FB901D6
:1027700043E050E00E9416128981282F2695269565
:102780008E819F81FC0120838981882F90E0837056
:102790009070880F991F880F991F982F8A818295B2
:1027A000869586958370892B282F8E819F81FC01C9
:1027B00021838A818695282F2F718E819F81FC012C
:1027C00022832B818E819F81FC01238327960FB664
:1027D000F894DEBF0FBECDBFCF91DF910895DF9398
:1027E000CF9300D000D0CDB7DEB79C838B838B8195
:1027F0009C81FC0180819181FC0180818F3F09F4E3
:1028000092C08B819C81FC0180819181FC0180813F
:10281000882F90E0880F991F880F991F880F991FA4
:1028200082569E4F9A8389838B819C81FC01828191
:1028300093812B813C81F90120813181F901208133
:10284000222F30E0220F331F28593A4FF9012081FF
:102850003181FC01318320838B819C81FC01828149
:102860009381FC0112821382148215828B819C81D8
:10287000FC018085282F22608B819C81FC012087B0
:102880008B819C81FC012281338189819A81FC01A9
:10289000868197810097D1F089819A81FC014481DA
:1028A000558189819A81FC0186819781840F951FCA
:1028B000AA2797FDA095BA2F072E79E0880F991FB8
:1028C000AA1FBB1F7A95D1F7702D11C089819A81FB
:1028D000FC0180819181CC01A0E0B0E0072E79E07D
:1028E000880F991FAA1FBB1F7A95D1F7702DF90188
:1028F00081879287A387B4878B819C81FC01228189
:10290000338189819A81FC0186819781982F88275C
:10291000990FAA2797FDA095BA2FF9018587968769
:10292000A787B08B01C000000F900F900F900F9001
:10293000CF91DF910895DF93CF9300D0CDB7DEB76D
:102940009A83898389819A81FC0184818F3371F014
:1029500089819A81FC018085882F90E08072907037
:10296000009721F089819A810E94EF1389819A81D1
:10297000FC018085882F90E081709070882371F031
:1029800089819A81FC018281938129813A81F901AF
:1029900020813181F9012181FC01208789819A817F
:1029A000FC018085882F90E0827090700097C9F0BC
:1029B00089819A81FC01228133818091AD029091BD
:1029C000AE0249815A81FA0140815181FA01458163
:1029D0005681BA010E94521CAB01CA01F9019783CA
:1029E00086830F900F90CF91DF910895DF93CF935F
:1029F000CDB7DEB72A970FB6F894DEBF0FBECDBFB6
:102A0000CE01029624E931E049E0F90100802F5F10
:102A10003F4FFC010082019641504423B1F71982D7
:102A2000AFC08981282F30E0C901880F991FAC0100
:102A3000440F551F440F551F840F951F820F931F7E
:102A400081559D4F9B838A838981882F90E09C01CB
:102A500022953295307F3227207F3227820F931FB5
:102A60008C5D9A4F9D838C832091200530912105A8
:102A70008091220590912305820F931F9E012E5F66
:102A80003F4F2C5F3F4FB9010E94A4138A819B8165
:102A90002F81FC0123838A819B812985FC0124836A
:102AA00088858823E9F08A819B8128852150FC0153
:102AB00020838A819B812A813B81F9012081222FF9
:102AC00030E0220F331F220F331F220F331F2F55E9
:102AD0003E4FF9012081FC0121838A8581608A872C
:102AE0008F81882319F489858823D1F08F81882FDD
:102AF00090E0880F991F80509F4FFC018081918149
:102B0000009771F08F81882F90E0880F991F805077
:102B10009F4FFC0120813181CE010296F901099578
:102B20008E818F33E9F08A819B812E81FC01228383
:102B30008F81833019F48F81853091F08A819B8158
:102B40002A813B81F9012281222F30E0220F331F9D
:102B50002F5B3E4FF90120813181FC0136832583B3
:102B6000CE0102960E949B1480912205909123052C
:102B70000396909323058093220589818F5F898333
:102B80008981843008F44DCF2A960FB6F894DEBFC1
:102B90000FBECDBFCF91DF910895DF93CF93CDB717
:102BA000DEB72A970FB6F894DEBF0FBECDBFCE01B9
:102BB00002962BE831E049E0F90100802F5F3F4F9A
:102BC000FC010082019641504423B1F7198256C09E
:102BD0008981282F30E0C901880F991FAC01440F6B
:102BE000551F440F551F840F951F820F931F81554A
:102BF0009D4F9B838A838A819B81FC0183818823EB
:102C000031F48A819B81FC0184818823A1F189812F
:102C1000882F90E09C0122953295307F3227207FCB
:102C20003227820F931F8C5D9A4F9D838C838A81FC
:102C30009B81FC018381882F90E0880F991F805E23
:102C40009E4FFC0180819181009789F08A819B8150
:102C5000FC018381882F90E0880F991F805E9E4F32
:102C6000FC0120813181CE010296F9010995CE0146
:102C700002960E949B1489818F5F898389818430A9
:102C800008F4A6CF2A960FB6F894DEBF0FBECDBFCC
:102C9000CF91DF910895DF93CF9300D0CDB7DEB70A
:102CA00089836A8389818093AC029091A00280918C
:102CB000AC02891720F010929C0280E022C08A8129
:102CC00080931D0580911D05803414F010921D0520
:102CD0008091AC028F5F809396021092990280914E
:102CE000AC02882F90E083529D4FFC01308180918F
:102CF0001D05282F8FE195E0632F422F0E947D1242
:102D000081E00F900F90CF91DF910895DF93CF93E3
:102D1000CDB7DEB780919B028F5F80939B0290912D
:102D20009B0280911E059817F0F010929B029091E3
:102D30001D0581E090340CF480E09F5F90931D05A9
:102D4000882371F08091960290919902692F0E94D8
:102D50004B16882359F080911D058F5F80931D05C8
:102D60000E94F61404C00E94CD1501C00000CF914E
:102D7000DF910895DF93CF9300D0CDB7DEB79A836C
:102D8000898389819A81FC018081918121E0FC0104
:102D9000278389819A81FC0180819181FC01828154
:102DA0008F3381F489819A81FC012081318189816D
:102DB0009A81FC0180819181FC011482FC01848153
:102DC000F90183830F900F90CF91DF910895DF93E6
:102DD000CF9300D0CDB7DEB79A8389830F900F9041
:102DE000CF91DF910895DF93CF9300D0CDB7DEB7B9
:102DF0009A8389830F900F90CF91DF910895DF938D
:102E0000CF9300D0CDB7DEB79A83898389819A8129
:102E1000FC0184818F33A9F089819A81FC01808132
:102E2000918129813A81F9012481222F30E0220FFA
:102E3000331F2F5B3E4FF90120813181FC01328726
:102E4000218789819A81FC0180819181FC018481A3
:102E5000882371F089819A81FC0180819181298187
:102E60003A81F90120813181F9012481FC01208717
:102E700089819A81FC018085282F2F7D89819A8103
:102E8000FC0120870F900F90CF91DF910895DF9381
:102E9000CF9300D0CDB7DEB79A8389830F900F9080
:102EA000CF91DF910895DF93CF9300D0CDB7DEB7F8
:102EB0009A8389830F900F90CF91DF910895DF93CC
:102EC000CF9300D0CDB7DEB79A8389830F900F9050
:102ED000CF91DF910895DF93CF9300D0CDB7DEB7C8
:102EE0009A8389830F900F90CF91DF910895DF939C
:102EF000CF9300D0CDB7DEB79A8389830F900F9020
:102F0000CF91DF910895DF93CF9300D0CDB7DEB797
:102F10009A8389830F900F90CF91DF910895DF936B
:102F2000CF9300D0CDB7DEB79A8389830F900F90EF
:102F3000CF91DF910895DF93CF9300D0CDB7DEB767
:102F40009A83898389819A81FC0180819181FC0126
:102F500084818093960280E480931D050F900F90EA
:102F6000CF91DF910895DF93CF9300D0CDB7DEB737
:102F70009A83898389819A81FC0180819181298149
:102F80003A81F9012781FC01218389819A81FC0121
:102F90008085282F216089819A81FC0120870F90EC
:102FA0000F90CF91DF910895DF93CF9300D0CDB7ED
:102FB000DEB79A83898389819A81FC01808191811E
:102FC000FC0184818093990280E480931D050F9019
:102FD0000F90CF91DF910895DF93CF9300D0CDB7BD
:102FE000DEB79A8389830F900F90CF91DF91089578
:102FF000DF93CF9300D0CDB7DEB79A8389838981E1
:103000009A81FC018781803238F489819A81FC01A0
:10301000878180931E0512C089819A81FC01878176
:10302000882F90E08097880F991F835A9C4FFC014E
:10303000808191819093DC028093DB020F900F904E
:10304000CF91DF910895DF93CF9300D00F92CDB74A
:10305000DEB79B838A838A819B81FC018081918179
:10306000FC01828189838A819B81FC01808191811D
:10307000FC018781882F90E08130910521F082301A
:10308000910571F019C08A819B81FC018081918139
:10309000FC01848182958F709981890F89830CC08E
:1030A0008A819B81FC0180819181FC0184818F70E8
:1030B0009981890F898300008A819B81FC0180812D
:1030C0009181FC0127812F5FFC012783FC0187810F
:1030D000833038F08A819B81FC0180819181FC01E1
:1030E00017828981843210F083E289838A819B81EF
:1030F000FC01808191812981222F30E0220F331F32
:103100002F5B3E4FF90120813181FC0136832583FD
:103110008A819B81FC018085282F22608A819B8186
:10312000FC0120870F900F900F90CF91DF910895B1
:10313000DF93CF9300D00F92CDB7DEB79A83898308
:103140006B838B81992787FD909529813A81820F26
:10315000931F9A83898389819A8123E08935920715
:103160002CF088E593E09A83898309C089819A814C
:103170008137910524F481E790E09A8389838981DE
:103180009A810F900F900F90CF91DF9108950F9338
:103190001F93DF93CF9300D0CDB7DEB79A83898397
:1031A00089819A81FC010081118189819A81FC01C8
:1031B00080819181FC018581968129813A81F90183
:1031C00020813181F90124812195622F0E94981874
:1031D000F8019683858389819A81FC018085282F57
:1031E000226089819A81FC0120870F900F90CF91F6
:1031F000DF911F910F9108950F931F93DF93CF934A
:1032000000D0CDB7DEB79A83898389819A81FC018A
:103210000081118189819A81FC0180819181FC0169
:103220008581968129813A81F90120813181F901D5
:103230002481622F0E949818F801968385838981E2
:103240009A81FC018085282F226089819A81FC0166
:1032500020870F900F90CF91DF911F910F910895CC
:103260000F931F93DF93CF9300D0CDB7DEB79A8330
:10327000898389819A81FC0180819181FC0125816A
:10328000368189819A81FC0180819181FC0181854F
:1032900092852817390708F03FC089819A81FC017F
:1032A0000081118189819A81FC0180819181FC01D9
:1032B0008581968129813A81F90120813181F90145
:1032C0002085622F0E949818F80196838583898152
:1032D0009A81FC0180819181FC012581368189815F
:1032E0009A81FC0180819181FC0181859285821700
:1032F000930708F063C089819A81FC0180819181E4
:1033000029813A81F90120813181F90121853285B4
:10331000FC013683258352C089819A81FC0180811A
:103320009181FC012581368189819A81FC0180810E
:103330009181FC01818592858217930708F03EC038
:1033400089819A81FC010081118189819A81FC0126
:1033500080819181FC018581968129813A81F901E1
:1033600020813181F90120852195622F0E949818D2
:10337000F8019683858389819A81FC0180819181FE
:10338000FC012581368189819A81FC0180819181AE
:10339000FC01818592852817390780F489819A81FB
:1033A000FC018081918129813A81F901208131815B
:1033B000F90121853285FC013683258389819A8133
:1033C000FC018085282F226089819A81FC01208759
:1033D0000F900F90CF91DF911F910F910895DF9380
:1033E000CF9300D0CDB7DEB79A8389830F900F902B
:1033F000CF91DF910895DF93CF9300D0CDB7DEB7A3
:103400009A83898389819A810E94301989819A815E
:103410000E943F1A0F900F90CF91DF910895DF9394
:10342000CF9300D0CDB7DEB79A8389830F900F90EA
:10343000CF91DF910895DF93CF9300D0CDB7DEB762
:103440009A8389830F900F90CF91DF910895DF9336
:10345000CF9300D0CDB7DEB79A8389830F900F90BA
:10346000CF91DF910895DF93CF9300D0CDB7DEB732
:103470009A8389830F900F90CF91DF910895DF9306
:10348000CF9300D000D0CDB7DEB79C838B838B81E8
:103490009C81FC0180819181FC01848182958F70E7
:1034A00089838B819C81FC0180819181FC018481D5
:1034B0008F708A8391E08981882309F490E081E00C
:1034C0002A81222309F480E08927882309F447C050
:1034D00089818823E9F08B819C81FC018081918125
:1034E0002B813C81F90120813181F90131812981D0
:1034F000230FFC012183FC018181803430F18B8119
:103500009C81FC01808191812FE3FC0121831DC0FE
:103510008B819C81FC01808191812B813C81F9010F
:1035200020813181F90131812A81F32FF21B2F2F64
:10353000FC012183FC018181803438F08B819C81E6
:10354000FC0180819181FC0111828B819C81FC01B5
:103550008085282F21608B819C81FC0120870F9022
:103560000F900F900F90CF91DF910895DF93CF933D
:1035700000D0CDB7DEB79A8389830F900F90CF919B
:10358000DF910895DF93CF9300D0CDB7DEB79A8354
:1035900089830F900F90CF91DF910895DF93CF93A0
:1035A00000D0CDB7DEB79A8389830F900F90CF916B
:1035B000DF910895DF93CF9300D0CDB7DEB79A8324
:1035C00089830F900F90CF91DF910895DF93CF9370
:1035D00000D0CDB7DEB79A8389830F900F90CF913B
:1035E000DF910895DF93CF93CDB7DEB7F89481E6EE
:1035F00090E020E8FC01208381E690E020E8FC01D7
:1036000020830E94C41284E490E022E0FC01208325
:1036100085E490E022E0FC01208387E490E02EE343
:10362000FC01208380EB90E023EAFC01208381EB06
:1036300090E021E0FC0120838EE690E022E0FC0196
:1036400020838AE290E02AE230E0F90120812C6FA9
:10365000FC012083789401C0000080919A028823A5
:10366000D9F380919A02815080939A020E94861623
:10367000F4CF1F920F920FB60F921124EF92FF9288
:103680000F931F932F933F934F935F936F937F936A
:103690008F939F93AF93BF93EF93FF93DF93CF935A
:1036A000CDB7DEB72597DEBFCDBF84EB90E020918C
:1036B0004001FC01208380919C028130E9F48091DB
:1036C00097029091980201969093980280939702A6
:1036D00020919702309198028091DB029091DC0258
:1036E0008217930748F480919A028F5F80939A0221
:1036F00010929802109297021A8219821B82A1C01E
:103700008B81882F90E09C0122953295307F322763
:10371000207F3227820F931F8C5D9A4F9D838C836D
:103720008C819D81FC0180819181009709F486C084
:103730008C819D81FC01208131818C819D81FC01E6
:1037400082819381A481B581892F9A2FAB2FBB27CA
:10375000820F931F0E94CA11482F552747FD50958D
:103760008C819D81FC018085282F30E0429FC00123
:10377000439F900D529F900D112429813A81820F11
:10378000931F9A8389838C819D81FC0122813381DF
:10379000448155818C819D81FC0186819781CC017A
:1037A000A0E0B0E0820F931FA41FB51F2C813D81C4
:1037B000F90182839383A483B5838C819D81FC016D
:1037C00022813381448155818C819D81FC018185D9
:1037D0009285A385B485281739074A075B0770F1DE
:1037E0008C819D81FC0185859685A785B089009790
:1037F000A105B105F1F08C819D81FC01228133810D
:10380000448155818C819D81FC0185859685A785A4
:10381000B08979018A01E81AF90A0A0B1B0BD80151
:10382000C7012C813D81F90182839383A483B583F1
:1038300005C08C819D81FC01118210828B818F5F7C
:103840008B838B81843008F45BCF89819A81892FA7
:10385000990F990B8058809340012596DEBFCDBF0C
:10386000CF91DF91FF91EF91BF91AF919F918F9198
:103870007F916F915F914F913F912F911F910F9188
:10388000FF90EF900F900FBE0F901F901895DF9351
:10389000CF93CDB7DEB70E945712882311F00E9454
:1038A000F21AFFCFAA1BBB1B51E107C0AA1FBB1F07
:1038B000A617B70710F0A61BB70B881F991F5A95BC
:1038C000A9F780959095BC01CD010895F894FFCF9C
:1038D000BA16E716F316FF16471753175F176B173D
:1038E000771783178F179B17B317D417EC17F81791
:1038F0002318C718FC183019EF19FB190F1A1B1AD7
:10390000271A331A3F1AB61AC21ACE1ADA1AE61A48
:103910007F58032803FA02D002A60280025C023A12
:10392000021A02FC01E001C501AC0194017D0168AD
:1039300001530140012E011D010D01FE00F000E2C6
:1039400000D600CA00BE00B400AA00A00097008FF5
:103950000087007F0078007100B022000000003F67
:0E396000FF000000000000003F0000002000FB
:00000001FF
