:100000000C94CF190C94EC190C94EC190C94EC1979
:100010000C94EC190C94EC190C94EC190C94EC194C
:100020000C94EC190C94EC190C94EC190C94EC193C
:100030000C94EC190C94EC190C949B2B0C94EC196B
:100040000C94EC190C94EC190C94EC190C94EC191C
:100050000C94EC190C94EC190C94EC190C94EC190C
:100060000C94EC190C94EC194156524D08130011E4
:1000700053000E640008642A0000000E00004000D7
:10008000000E003E0000400600380007000040005F
:100090000007000700004000000700EE01004000DC
:1000A000000000CD000040000000004D01004000B5
:1000B00000000007000040000007000200010304E8
:1000C00005050607080900010A0B0C0D6902826884
:1000D0000837300A003904A2FD0000FC0037FC009C
:1000E00000FD0000FD8002680637300A00FD800236
:1000F000FD0000FC0037FC0000FD0000FD800268F0
:1001000010374C0E00FD8002FD8002FC0037FC0021
:1001100000FD8002710200680637440C00390400BB
:100120006B021EFC0037440C003B0420750200608B
:100130000847300A0031040073021EFC0047FC002F
:1001400000FD0000710200600647300A00FD8002D9
:1001500077021EFC0047FC0000FD800268C22F6091
:1001600010474C0E00310400FCC000FC0047FC00AE
:1001700000FD0000FD8002600647440C00FD800287
:10018000FD8002FC0047FC0000FD8002610200745B
:100190000847300A00450400FD0000FC0047FC0051
:1001A00000FD0000FD8002740647300A00FD800259
:1001B000FD8002FC0047FC0000FD000055020074B9
:1001C00010474C0E00FD8002FD0000FC0047FC00C3
:1001D00000FD0000FD8002740647440C00FD800213
:1001E000FD8002FC0047440C00FD80024D020060CF
:1001F0000847300A00310400FD0000FC0047FC0005
:1002000000FD0000FD8002600647300A00FD80020C
:10021000FD8002FC0047FC0000FD000060C20F6092
:1002200010474C0E00FD8002FCC000FC0047FC00A3
:1002300000FD0000FD8002600647300A00FD8002DC
:10024000FD8002FC00474C0E00FD80026902005850
:100250000847300A002904004F021EFC0047FC003A
:1002600000FD0000710200580647300A00FD8002C0
:100270006B021EFC0047FC0000FD80026902005872
:1002800010474C0E0015040073021EFC0047FC00D2
:10029000002B0420610200580647440C002904008A
:1002A0006B021EFC0047440C00170420690200602A
:1002B0000847300A00310400FD0000FC0047FC0044
:1002C00000FD0000FD8002600647300A00FD80024C
:1002D000FD8002FC0047FC0000FD800260C20F6050
:1002E00010474C0E001D0400FCC000FC0047FC0041
:1002F00000330420FD8002600647440C00310400F6
:10030000FD8002FC0047FC00001F042068C2046856
:100310000837300A00390400FCC000FC0037FC003C
:1003200000FD0000FCC000680637300A00FD8002B6
:10033000FCC000FC0037FC0000FD0000FD00006870
:1003400010374C0E00FD8002FD0000FC0037FC0061
:1003500000FD8002FD00A2680637440C0025040061
:10036000FD0000FC0037440C003B0420FD800268C7
:100370000837300A00090400FD00B3FC0037FC0018
:1003800000FD0000FD8002680637300A00FD800293
:10039000FD8002FC0037FC0000FD80026902006065
:1003A00010474C0E003904006B021EFC0047FC0095
:1003B000000B0420710200600647300A003104007F
:1003C0006B021EFC00474C0E003B04207502827439
:1003D0000847300A004504A2FD0000FC0047FC006D
:1003E00000FD0000FD8002740647300A00FD800217
:1003F000FD8002FC0047FC0000FD00008502007447
:1004000010474C0E00FD8002FD0000FC0047FC0080
:1004100000FD8002FD8002740647440C0045040084
:10042000FD8002FC0047440C004704207D02006070
:100430000847300A0031040087021EFC0047FC0018
:1004400000FD0000750200600647300A00FD8002D2
:100450007F021EFC0047FC0000FD000070C20F6020
:1004600010474C0E00FD8002FCC000FC0047FC0061
:1004700000FD8002FD8002600647440C003104004C
:10048000FD8002FC0047FC00003304207502006878
:100490000837300A0039040073021EFC0037FC00E4
:1004A00000FD0000710200680637300A00FD80027E
:1004B00077021EFC0037FC0000FD800268C20F6856
:1004C00010374C0E00390400FCC000FC0037FC0063
:1004D000003B0420FD8002680637440C003904000C
:1004E000FD8002FC0037440C003B042071020054E4
:1004F0000837300A002504006B021EFC0037FC00A0
:1005000000FD0000690200540637300A00FD800239
:1005100073021EFC0037FC0000FD800260C21F5405
:1005200010374C0E00550400FCC000FC0037FC00E6
:1005300000FD0000FD8002540637300A00FD8002F5
:10054000FD8002FC00374C0E00FD800268C20F588F
:100550000847300A00290400FD0000FC0047FC00A9
:1005600000FD0000FD8002580647300A00FD8002B1
:10057000FD8002FC0047FC0000FD80027CC20F5899
:1005800010474C0E00150400FCC000FC0047FC00A6
:10059000002B0420FD8002580647440C002904006B
:1005A000FD8002FC0047440C00170420710200602B
:1005B0000847300A00310400FD0000FC0047FC0041
:1005C00000FD0000FD8002600647300A00FD800249
:1005D000FD8002FC0047FC0000FD0000610200609D
:1005E00010474C0E00FD8002FD0000FC0047FC009F
:1005F00000FD8002FD8002600647440C006104009B
:10060000FD8002FC0047FC000033042068C204683F
:100610000837300A00390400FCC000FC0037FC0039
:1006200000FD0000FCC000680637300A00FD8002B3
:10063000FCC000FC0037FC0000FD0000FD0000686D
:1006400010374C0E00FD8002FD0000FC0037FC005E
:1006500000FD8002FD00A2680637440C002504005E
:10066000FD0000FC0037440C003B0420FD800268C4
:100670000837300A00390400FD00B1FC0037FC00E7
:1006800000FD0000FD8002680637440E00FD800278
:10069000FD8002FC0037FC0000FD000054C2086829
:1006A00010374C0E00FD8002FCC000FC0037FC003F
:1006B00000FD0000FCC000680637440E00FD80020B
:1006C000570215FC0037480E00FD8002550282FCDF
:1006D000000033CA045504A2FD0000FC00004C0ECB
:1006E00000FD0000FD8002FC00004B0E20FD80029A
:1006F000FD8002FF40004C0E00FD8002FC0000FC6B
:100700000000FC0000FC0000FC0000FC0000FC00FD
:1007100000FC0000FC0000FC0000FC0000FC0000ED
:10072000FC0000FC0000FC0000FC0000FC0000FCE1
:100730000000FC0000FC0000FC0000FC0000FC00CD
:1007400000FC0000FC0000FC0000FC0000FC0000BD
:10075000FC0000FC0000FC0000FC0000FC0000FCB1
:100760000000FC0000FC0000FC0000FC0000FC009D
:1007700000FC0000FC0000FC0000FC0000FC00008D
:10078000FC0000FC0000FC0000FC0000FC0000FC81
:100790000000FC0000FC0000FC0000FC0000FC006D
:1007A00000FC0000FC0000FC0000FC0000FC00005D
:1007B000FC0000FC0000FC0000FC0000FC0000FC51
:1007C0000000FC0000FC0000FC0000FC0000FC003D
:1007D00000FC0000FC0000FC0000FC0000FC00002D
:1007E000FC0000FC0000FC0000FC0000FC0000FC21
:1007F0000000FC0000FC0000FC0000FC0000FC000D
:1008000000FC0000FC0000FC0000FC0000FC0000FC
:10081000FC0000FC0000FC0000FC0000FC0000FCF0
:100820000000FC0000FC0000FC0000FC0000FC00DC
:1008300000FC0000FC0000FC0000FC0000FC0000CC
:10084000FC0000FC0000FC0000FC0000FC0000FCC0
:100850000000FC0000FC0000FC0000FC0000FC00AC
:1008600000FC0000FC0000FC0000FC0000FC00009C
:10087000FC0000FC0000FC0000FC0000FC0000FC90
:100880000000FC0000FC0000FC0000FC0000FC007C
:1008900000FC0000FC0000FC0000FC0000FC00006C
:1008A000FC0000FC0000FC0000FC0000FC0000FC60
:1008B0000000FC0000FC0000FC0000FC0000FC004C
:1008C00000FC0000FC0000FC0000FC0000FC00003C
:1008D000FC0000FC0000FC0000FC0000FC0000FC30
:1008E0000000FC0000FC0000FC0000FC0000FC001C
:1008F00000FC0000FC0000FC0000FC0000FC00000C
:10090000FC0000FC0000FC0000FC0000FC0000FCFF
:100910000000FC0000FC0000FC0000FC0000FC00EB
:1009200000FC0000FC0000FC0000FC0000FC0000DB
:10093000FC0000FC0000FC0000FC0000FC0000FCCF
:100940000000FC0000FC0000FC0000FC0000FC00BB
:1009500000FC0000FC0000FC0000FC0000FC0000AB
:10096000FC0000FC0000FC0000FC0000FC0000FC9F
:100970000000FC0000FC0000FC0000FC0000FC008B
:1009800000FC0000FC0000FC0000FC0000FC00007B
:10099000FC0000FC0000FC0000FC0000FC0000FC6F
:1009A0000000FC0000FC0000FC0000FC0000FC005B
:1009B00000FC0000FC0000FC0000FC0000FC00004B
:1009C000FC0000FC0000FC0000FC000069028268E2
:1009D0000837300A003904A2FD0000FC0037FC0093
:1009E00000FD000057020E680637440C00FD80022F
:1009F0006B0212FC0037FC0000FD0000FD000068E7
:100A00001037440C00FD8002570205FC0037FC0043
:100A100000FD8002710200680637440C00390400B2
:100A2000FD0000FC0037440C003B04207502006010
:100A300008474C0E00310400730212FC0047FC0012
:100A400000FD0000710200600647440C00FD8002BA
:100A5000770212FC0047FC0000FD80026902006082
:100A60001047300A00310400730212FC0047FC00FA
:100A700000FD000077020E600647440C00FD800276
:100A80006B0212FC0047FC0000FD80026102007452
:100A90000847300A00450400770205FC0047FC00C7
:100AA00000FD00006B020E740647440C00FD80023E
:100AB000630212FC0047FC0000FD000055020074B8
:100AC0001047440C00FD80026B0205FC0047FC004F
:100AD00000FD000063020E740647440C00FD800216
:100AE000570212FC0047440C00FD80024D020060DA
:100AF00008474C0E00310400630205FC0047FC006F
:100B000000FD000057020E600647440C00FD800205
:100B10004F0212FC0047FC0000FD00006102006073
:100B20001047300A00FD8002570205FC0047FC0018
:100B300000FD00004F020E600647440C00FD8002DD
:100B4000630212FC0047FC0000FD800269020058AD
:100B50000847300A002904004F0205FC0047FC004A
:100B600000FD0000710200580647440C00FD8002A1
:100B70006B0212FC0047FC0000FD80026902005875
:100B80001047440C00150400730212FC0047FC00DF
:100B9000002B0420610200580647440C0029040081
:100BA0006B0212FC0047440C00170420690200602D
:100BB00008474C0E00310400630212FC0047FC00A1
:100BC00000FD00006B020E600647440C00FD800231
:100BD0006B0212FC0047FC0000FD80026102006015
:100BE0001047300A001D04006B0205FC0047FC00A2
:100BF000003304206B020E600647440C00310400F1
:100C0000630212FC0047FC00001F04206902006818
:100C10000837300A003904006B0205FC0037FC007D
:100C200000FD000063020E680637440C00FD8002E0
:100C30006B0212FC0037FC0000FD00006B02036831
:100C40001037440C00FD8002630205FC0037FC00F5
:100C500000FD80026B020E680637440C002504007C
:100C60006B0201FC0037440C003B04206302036864
:100C700008374C0E000904006B0205FC0037FC002D
:100C800000FD0000FD0000680637440C00FD8002F6
:100C9000630201FC0037FC0000FD800268C20F60A7
:100CA00010474C0E00390400FCC000FC0047FC005B
:100CB000003B0420710200600647480E003104002A
:100CC0006B0212FC0047FC00003B0420750282749A
:100CD0000847300A004504A2FD0000FC0047FC0064
:100CE00000FD0000FD0000740647440C00FD80027A
:100CF000770212FC0047FC0000FD000084C20F7464
:100D00001047440C00FD8002FCC000FC0047FC00C2
:100D100000FD800277020E740647440C0045040073
:100D2000870212FC0047440C004704207D0200604B
:100D300008474C0E00310400770205FC0047FC0018
:100D400000FD0000750200600647440C00FD8002B3
:100D50007F0212FC0047FC0000FD000071020060F1
:100D60001047300A00FD8002770212FC0047FC00A9
:100D700000FD80027F020E600647440C0031040033
:100D8000730212FC0047FC00003304207502006867
:100D90000837300A003904007F0205FC0037FC00E8
:100DA00000FD0000710200680637440C00FD0000E1
:100DB000770212FC0037FC0000FD000069020068A9
:100DC0001037440C00390400730212FC0037FC0099
:100DD000003B042077020E680637440C00390400FB
:100DE0006B0212FC0037440C003B042071020054DB
:100DF00008374C0E00250400770205FC0037FC0084
:100E000000FD0000690200540637440C00FD80021A
:100E1000730212FC0037FC0000FD800261020054E6
:100E20001037300A005504006B0212FC0037FC003A
:100E300000FD000073020E540637440C00FD8002D2
:100E4000630212FC0037FC0000FD800268C20F58EC
:100E50000847300A00290400730205FC0047FC0023
:100E600000FD000063020E580647440C00FD80029E
:100E70006B0212FC0047FC0000FD80027D0200585E
:100E80001047440C00150400630205FC0047FC00F9
:100E9000002B04206B020E580647440C0029040066
:100EA0007F0212FC0047440C0017042070C20F6040
:100EB00008474C0E003104006B0205FC0047FC00A3
:100EC00000FD00007F020E600647440C00FD80021A
:100ED000730212FC0047FC0000FD0000610200608C
:100EE0001047300A00FD80027F0205FC0047FC002D
:100EF00000FD800273020E600647440C006104008E
:100F0000630215FC0047FC000033042068C20F6830
:100F10000837300A00390400730205FC0037FC0072
:100F200000FD000063020E680637440C00FD8002DD
:100F30006B0212FC0037FC0000FD00007302036826
:100F40001037440C00FD8002630205FC0037FC00F2
:100F500000FD80026B020E680637440C0025040079
:100F6000730203FC0037440C003B04206302036857
:100F70000837430E403904006B0205681037470EEE
:100F800020FD00007302016806374B0E40FD800211
:100F9000630201680837470E30FD00006B020368EA
:100FA0000637300A00FD8002FD0000680837FC00AB
:100FB00000FD0000FD0000681037300A00FD8002CF
:100FC0006B02016808374F0E20FD800269028268BB
:100FD0000837300A003904A2FF001E681037FC00F1
:100FE00000FD0000550200680637440C00FD800239
:100FF0006B021E680837FC0000FD80025502006885
:1010000006374C0E0069040057021E680837FC00C2
:10101000003B0420710200681037300A00390400D8
:1010200057021E680837FC0000FD000055020068EA
:101030000837440C00FD800273021E681037FC0064
:1010400000FD8002550200680637300A0055040092
:1010500057021E680837FC00003B042068C24F6836
:1010600006374C0E0045040057021E680837FC0086
:1010700000570420710200681037300A0041040054
:101080006B021E680837FC000047042074C20F681A
:101090000837300A0039040073021E681037FC005C
:1010A00000FD0000550200680637440C00FD800278
:1010B00077021E680837FC0000FD800255020068B8
:1010C00006374C0E0069040057021E680837FC0002
:1010D000003B0420850200681037300A0039040004
:1010E00057021E680837FC0000FD0000550200682A
:1010F0000837440C00FD800287021E681037FC0090
:1011000000FD8002550200680637300A00310400F5
:1011100057021E680837FC00003B042074C24F6869
:1011200006374C0E0039040057021E680837FC00D1
:1011300000330420710200681037300A00410400B7
:1011400077021E680837FC00003B042074C20F744D
:101150000847300A0045040073021E741047FC0063
:1011600000FD0000610200740647440C00FD80028F
:1011700077021E740847FC0000FD800261020074C3
:1011800006474C0E0085040063021E740847FC00ED
:1011900000470420850200741047300A004504000F
:1011A00063021E740847FC0000FD00006102007429
:1011B0000847440C00FD800287021E741047FC00A3
:1011C00000FD8002610200740647300A003104000D
:1011D00063021E740847FC000047042088C24F7455
:1011E00006474C0E0045040063021E740847FC00CD
:1011F000003304207D0200741047300A00410400CF
:101200008B021E740847FC000047042084C20F7440
:101210000847300A004504007F021E741047FC0096
:1012200000FD0000610200740647440C00FD8002CE
:1012300087021E740847FC0000FD800261020074F2
:1012400006474C0E0075040063021E740847FC003C
:1012500000470420750200741047300A004504005E
:1012600063021E740847FC0000FD00006102007468
:101270000847440C00FD800277021E741047FC00F2
:1012800000FD8002610200740647300A003104004C
:1012900063021E740847FC000047042074C24F74A8
:1012A00006474C0E0055040063021E740847FC00FC
:1012B00000330420710200741047440E00450400FE
:1012C00077021E7408474B0E205704208902827C47
:1012D0000837300A004D04A2FF001E7C1037FC00C6
:1012E00000FD00006902007C0637440C00FD80020E
:1012F0008B021E7C0837FC0000FD80026902007C26
:1013000006374C0E008904006B021E7C0837FC0077
:10131000004F04207D02007C1037300A004D04008D
:101320006B021E7C0837FC0000FD00006902007C97
:101330000837440C00FD80027F021E7C1037FC0041
:1013400000FD80026902007C0637300A007D04003F
:101350006B021E7C0837FC00004F042084C24F7CC7
:1013600006374C0E006904006B021E7C0837FC0037
:10137000007F04208902007C1037300A00590400E5
:1013800087021E7C0837FC00006B04207CC20F7CA7
:101390000837300A004D04008B021E7C1037FC0019
:1013A00000FD00005902007C0637440C00FD80025D
:1013B0007F021E7C0837FC0000FD80025902007C81
:1013C00006374C0E007D04005B021E7C0837FC00D3
:1013D000004F04207D02007C1037300A004D0400CD
:1013E0005B021E7C0837FC0000FD00005902007CF7
:1013F0000837440C00FD80027F021E7C1037FC0081
:1014000000FD80026902007C0637300A00390400C2
:101410005B021E7C0837FC00004F04207CC24F7C1E
:1014200006374C0E004D04006B021E7C0837FC0092
:10143000003B04208902007C1037300A0039040088
:101440007F021E7C0837FC00004F042084C20F740A
:101450000847300A004504008B021E741047FC0048
:1014600000FD0000610200740647440C00FD80028C
:1014700087021E740847FC0000FD800261020074B0
:1014800006474C0E0085040063021E740847FC00EA
:1014900000470420750200741047300A004504001C
:1014A00063021E740847FC0000FD00006102007426
:1014B0000847440C00FD800277021E741047FC00B0
:1014C00000FD8002610200740647300A003104000A
:1014D00063021E740847FC000047042084C24F7456
:1014E00006474C0E0039040063021E740847FC00D6
:1014F000003304207D0200741047300A00310400DC
:1015000087021E740847FC00003B042074C24F741D
:101510000847300A004504007F021E741047FC0093
:1015200000FD0000550200740647440C00FD8002D7
:1015300077021E740847FC0000FD8002550200740B
:1015400006474C0E0075040057021E740847FC0045
:1015500000470420610200741047300A004504006F
:1015600057021E740847FC0000FD0000550200747D
:101570000847440C00FD800263021E741047FC0003
:1015800000FD8002610200740647300A0075040005
:1015900057021E740847FC000047042074C24F74B1
:1015A00006474C0E0085040063021E740847FC00C9
:1015B00000770420850200741047440E0075040073
:1015C00077021E7408474B0E205704207D0282606C
:1015D0000847300A003104A2FF001E601047FC00DB
:1015E00000FD00004D0200600647440C00FD800233
:1015F0007F021E600847FC0000FD80024D02006073
:1016000006474C0E006104004F021E600847FC00B4
:1016100000330420610200601047300A00310400EA
:101620004F021E600847FC0000FD00004D020060F4
:101630000847440C00FD800263021E601047FC0056
:1016400000FD80024D0200600647300A00310400B0
:101650004F021E600847FC000033042070C24F6038
:1016600006474C0E004D04004F021E600847FC0068
:1016700000330420750200601047300A0041040066
:1016800073021E600847FC00004F042070C20F6008
:101690000847300A0031040077021E601047FC0042
:1016A00000FD0000410200600647440C00FD80027E
:1016B00073021E600847FC0000FD800241020060CA
:1016C00006474C0E0061040043021E600847FC0000
:1016D00000330420610200601047300A003104002A
:1016E00043021E600847FC0000FD0000410200604C
:1016F0000847440C00FD800263021E601047FC0096
:1017000000FD8002410200600647300A00610400CB
:1017100043021E600847FC000033042068C24F608B
:1017200006474C0E0059040043021E600847FC00A7
:1017300000630420710200601047300A0061040059
:101740006B021E600847FC00005B042064C20F545B
:101750000847300A0025040073021E541047FC009D
:1017600000FD0000550200540647440C00FD8002B5
:1017700067021E540847FC0000FD80025502005419
:1017800006474C0E0055040057021E540847FC0043
:1017900000270420690200541047300A0041040069
:1017A00057021E540847FC0000FD0000550200547B
:1017B0000847440C00FD80026B021E541047FC00D9
:1017C00000FD8002550200540647300A0041040023
:1017D00057021E540847FC000043042064C24F54C3
:1017E00006474C0E004D040057021E540847FC00EB
:1017F00000430420690200541047300A00550400D9
:1018000067021E540847FC00004F042070C20F54AA
:101810000847300A002504006B021E541047FC00E4
:1018200000FD0000550200540647440C00FD8002F4
:1018300073021E540847FC0000FD8002550200544C
:1018400006474C0E0055040057021E540847FC0082
:1018500000270420850200541047300A0065040068
:1018600057021E540847FC0000FD000054C24F54AC
:101870000847440C0057042087021E541047FC0000
:1018800000FD80027CC24F540647300A0055040018
:1018900057021E540847FC000057042075020054EC
:1018A00006474C0E005D04007F021E540847FC00F2
:1018B0000057042070C24F541047440E00650400C6
:1018C00077021E5408474B0E205F0420690282688D
:1018D0000837300A00750282FD0000FC0037FC006A
:1018E00000FD0000FD8002680637440C00FD800208
:1018F000FD0000FC0037FC0000FD0000FD800268D8
:101900001037440C00FD8002FD8002FC0037FC0013
:1019100000FD8002710200680637440C007D020061
:101920006B021EFC0037440C0077021E750200603B
:1019300008474C0E0085020073021EFC0047FC00A5
:10194000007F021E710200600647440C007D020009
:1019500077021EFC0047FC000087021E690200603F
:101960001047300A00750200FD0000FC0047FC0033
:1019700000FD0000FD8002600647440C00FD80026F
:10198000FD8002FC0047FC0000FD800260C20F7475
:101990000847300A00750200FCC000FC0047FC004C
:1019A00000FD0000FD8002740647440C00FD80022B
:1019B000FD8002FC0047FC0000FD8002550200741F
:1019C0001047440C00610200FD0000FC0047FC00D1
:1019D00000FD0000FD8002740647440C00FD8002FB
:1019E000FD8002FC0047440C00FD80024D020060B7
:1019F00008474C0E00710200FD0000FC0047FC008F
:101A000000FD0000FD8002600647440C00FD8002DE
:101A1000FD8002FC0047FC0000FD800260C20F60F8
:101A20001047300A007D0200FCC000FC0047FC00AB
:101A300000FD0000FD8002600647440C00FD8002AE
:101A4000FD8002FC0047FC0000FD80026902005896
:101A50000847300A0088C20463021EFC0047FC00ED
:101A600000FCC000710200580647440C00FCC00096
:101A70006B021EFC0047FC0000FCC000690200581D
:101A80001047440C00FD00A173021EFC0047FC003F
:101A900000FD8002610200580647440C00FD00B2C0
:101AA0006B021EFC0047440C00FD800269020060CE
:101AB00008474C0E007D0200FD0000FC0047FC00C2
:101AC00000FD0000FD8002600647440C00FD80021E
:101AD000FD8002FC0047FC0000FD80026102006006
:101AE0001047300A00890200FD0000FC0047FC009E
:101AF00000FD0000FD8002600647440C00FD8002EE
:101B0000FD8002FC0047FC0000FD800269020068C5
:101B10000837300A00850200FD0000FC0037FC0099
:101B200000FD0000FD0000680637440C00FD800247
:101B3000FD0000FC0037FC0000FD0000FD00006817
:101B40001037440C00FD8002FD0000FC0037FC0053
:101B500000FD8002FD00A2680637440C00750200FB
:101B6000FD0000FC0037440C0087021EFD80026867
:101B700008374C0E00690200FD00B3FC0037FC0082
:101B800000FD0000FD8002680637440C00FD800265
:101B9000FD8002FC0037FC0000FD8002690200604D
:101BA00010474C0E006102006B021EFC0047FC0057
:101BB00000FD0000710200600647480E00FD800233
:101BC0006B021EFC0047FC0000FD8002750282745F
:101BD0000847300A00850282FD0000FC0047FC0037
:101BE00000FD0000FD8002740647440C00FD8002E9
:101BF000FD8002FC0047FC0000FD800285020074AD
:101C00001047440C00610200FD0000FC0047FC008E
:101C100000FD0000FD8002740647440C00FD8002B8
:101C2000FD8002FC0047440C00FD80027D02006044
:101C300008474C0E0071020087021EFC0047FC00A2
:101C400000FD0000750200600647440C00FD8002A4
:101C50007F021EFC0047FC0000FD000071020060D6
:101C60001047300A00FD8002FD0000FC0047FC0028
:101C700000FD8002FD8002600647440C007D0200EA
:101C8000FD8002FC0047FC000073021E7502006824
:101C90000837300A0085020073021EFC0037FC0082
:101CA00000FD0000710200680637440C00FD800250
:101CB00077021EFC0037FC0000FD8002690200680C
:101CC0001037440C00750200FD0000FC0037FC00DA
:101CD00000FD0000FD8002680637440C00FD800214
:101CE000FD8002FC0037440C00FD800271020054AC
:101CF00008374C0E005502006B021EFC0037FC003A
:101D000000FD0000690200540637440C00FD80020B
:101D100073021EFC0037FC0000FD800261020054CB
:101D20001037300A00710200FD0000FC0037FC0093
:101D30000057021EFD8002540637440C0061020069
:101D4000FD8002FC0037FC000073021E690200588F
:101D50000847300A00590200FD0000FC0047FC0063
:101D600000FD0000FD8002580647440C00FD000005
:101D7000FD8002FC0047FC0000FD00007D020058D1
:101D80001047440C00FD8002FD0000FC0047FC00F1
:101D900000FD0000FD8002580647440C00FD800253
:101DA000FD8002FC0047440C00FD800271020060CF
:101DB00008474C0E00610200FD0000FC0047FC00DB
:101DC00000FD0000FD8002600647440C00FD00009D
:101DD000FD8002FC0047FC0000FD00006102006085
:101DE0001047300A00FD8002FD0000FC0047FC00A7
:101DF00000FD0000FD8002600647440C00FD8002EB
:101E0000FD8002FC0047FC0000FD800268C20F68F4
:101E10000837300A0074C20FFD0000FC0037FC00D8
:101E200000FCC000FD0000680637440C00FD800285
:101E3000FD0000FC0037FC0000FD8002FD80026810
:101E40001037440C0070C208FD0000FC0037FC0095
:101E500000FCC000FD8002680637440C00FD8002D3
:101E6000FD0000FC0037440C00FD8002FD8002688C
:101E700008374C0E0068C208FD0000FC0037FC006B
:101E800000FCC000FD8002680637300A00FD8002B9
:101E9000FD8002FC0037FC0000FD80025502006856
:101EA00010374C0E00550400FD0000FC0037FC000C
:101EB00000FD0000FD0000680637440E00FD8002B2
:101EC000FD0000FC0037480E00FD8002740200682F
:101ED0000837300A003904A2FC0000FC0037FC007F
:101EE00000FD0000700200681037440C0039040047
:101EF000770210FF0000FC00003B0420680200682D
:101F00000837440C00690400730210FC0037FC0021
:101F100000FD000077020A681037440C003B0420E3
:101F20006B0210FF0000440C00FD00006802006816
:101F300008374C0E00690400770205FC0037FC00EE
:101F400000FD00006B020AFC0037440C006B04200B
:101F50006B0210FF0000FC0000FD00006002006842
:101F60001037300A003904006B0205FC0037FC0012
:101F7000006B04206B020A680837440C003104002F
:101F8000630210FF0000FC00003B042058020058D0
:101F90000847300A002904006B0205FC0047FC00DA
:101FA0000033042063020A581047440C002904003F
:101FB0005B0210FF0000FC0000FD000088020058DA
:101FC0000847440C002B0420630205FC0047FC007A
:101FD00000FD0000840200581047440C0029040052
:101FE0008B0210FF0000440C00FD00007C02005832
:101FF00008474C0E00590400870210FC0047FC0003
:1020000000FD00008B020AFC0047440C00FD80022A
:102010007F0210FF0000FC0000FD800274020058E7
:102020001047300A005504008B0205FC0047FC00F5
:10203000005B04207F020A580847440C0059040042
:10204000770210FF0000FC000057042070020070AF
:102050000847300A004104007F0205FC0047FC00ED
:10206000005B042077020A701047440C0041040012
:10207000730210FF0000FC0000FD00008C020070E5
:102080000847440C00FD8002770205FC0047FC0075
:1020900000FD8002840200701047440C002D0400F3
:1020A0008F0210FF0000440C0043042080020070E7
:1020B00008474C0E00410400870210FC0047FC005A
:1020C00000FD00008F020AFC0047440C00FD800266
:1020D000830210FF0000FC0000FD8002700200700F
:1020E0001047300A004104008F0205FC0047FC0045
:1020F0000043042083020A700847440C0041840412
:10210000730210FF0000FC0000518402840200549E
:102110000847300A0054C408830205FC0047FC004D
:1021200000FCC000540200541047440C005304202B
:10213000870220FF0000FC0000FD00004C0200545C
:1021400008474C0E00250400570210FC0047FC0015
:1021500000FD0000540200541047440C00570420B6
:102160004F0210FF0000440C00FD00004402005428
:1021700008474C0E00250400570210FC0047FC00E5
:1021800000270420540200FC0047470E202D0400C5
:10219000470210FF0000FC0000270420400200540A
:1021A00010474F0E30350400570210FC0047FC006A
:1021B000002F0420540200540847480E0041040038
:1021C000430210FF0000FC0000370420390282683F
:1021D0000837300A003904A2FD0000FC0037FC007B
:1021E00000FD0000550200681037440C00FD80021D
:1021F0003B0210FF0000FC0000FD00004D020068E3
:102200000837440C00FD8002570210FC0037FC0028
:1022100000FD8002550200681037440C00250400C0
:102220004F0210FF0000440C003B042045020068F0
:1022300008374C0E00390400570210FC0037FC0030
:1022400000FD0000550200FC0037440C00FD800238
:10225000470210FF0000FC0000FD80023902006808
:102260001037300A00410400570210FC0037FC0010
:1022700000FD0000410200680837440C00FD8002A8
:102280003B0210FF0000FC0000FD800244C22F74DE
:102290000847300A00450400FCC000FC0047FC0071
:1022A00000FD0000610200741047440C00FD800234
:1022B000470210FF0000FC0000FD8002590200747C
:1022C0000847440C00450400630210FC0047FC0072
:1022D00000470420610200741047440C00310400E0
:1022E0005B0210FF0000440C0047042055020074FC
:1022F00008474C0E00450400630210FC0047FC0038
:1023000000330420610200FC0047440C003104004B
:10231000570210FF0000FC00004704204502007433
:102320001047300A00450400630210FC0047FC001F
:1023300000330420610200740847440C0045840403
:10234000470210FF0000FC00005584024CC22F7CA5
:102350000847300A004CC40FFCC000FC0047FC00DA
:1023600000FCC0007D02007C1047440C00FD800290
:102370004F0210FF0000FC0000FD80026902007C9B
:102380000847440C004D04007F0210FC0047FC008D
:10239000004F04206102007C1047440C004D84086B
:1023A0006B0210FF0000440C003984065D02007CC3
:1023B00008474C0E004D0400630210FC0047FC006F
:1023C00000FD8002550200FC0047440C001D040083
:1023D0005F0210FF0000FC00004F04204D02007C53
:1023E0001047300A002D0400570210FC0047FC0083
:1023F000001F04204502007C0847440C00390400FB
:102400004F0210FF0000FC00002F042040C22F8468
:102410000847300A00550400FCC000FC0047FC00DF
:10242000003B0420350200841047440C004D04009A
:10243000430210FF0000FC0000570420410200840A
:102440000847440C00550400370210FC0047FC000C
:10245000004F04204D0200841047440C004104004A
:10246000430210FF0000440C005704205502008472
:1024700008474C0E005504004F0210FC0047FC00BA
:10248000004304205D0200FC0047440C00250400CA
:10249000570210FF0000FC00005704206502008472
:1024A00010474C0E002D04005F0210FC0047FC009A
:1024B00000270420710200840847480E00350400FC
:1024C000670210FF0000FC00002F042069028268F0
:1024D0000637300A003904A2FD0000FC0037FC007A
:1024E000003B0420FD0000FC0037440C00390400D0
:1024F0006B0210FC0037FC0000FD0000FD000068CE
:102500000837440C003B0420FD8002FC0037FC002F
:1025100000FD0000FD8002FC0037440C003904007F
:102520006B020AFC0037440C003B0420690200FCEB
:1025300000374C0E00690400FD0000FC0037FC0071
:1025400000FD0000FD8002FC0037440C003B04202D
:10255000FD8002FC0037FC0000FD000071020068F5
:102560001037300A00610400FD0000FC0037FC0059
:10257000006B0420FD8002FC0037440C006904005D
:10258000FD8002FC0037FC00006304207502006837
:102590000637300A00390400FD0000FC0037FC005B
:1025A000006B0420FD8002FC0037440C003904005D
:1025B000FD0000FC0037FC0000FD0000FD8002680B
:1025C0000837440C003B0420FD8002FC0037FC006F
:1025D00000FD00007D0200FC0037440C00250400D3
:1025E00077021EFC0037440C003B042084C20FFC21
:1025F00000374C0E00390400FCC000FC0037FC0022
:1026000000FD0000FD0000FC0037440C0027042002
:10261000FD0000FC0037FC0000FD00007CC20F68DC
:102620001037300A00410400FD0000FC0037FC00B8
:10263000003B0420FD0000FC0037440C0045040072
:10264000FD0000FC0037FC000043042074C20F6052
:102650000647300A00310400FD0000FC0047FC0082
:1026600000470420FD8002FC0047440C00310400B8
:10267000FD0000FC0047FC0000FD0000FD80026042
:102680000847440C00330420FD0000FC0047FC0018
:1026900000FD0000FD8002FC0047440C00310400F6
:1026A000FD8002FC0047440C00330420710200FC52
:1026B00000474C0E00610400FD0000FC0047FC00D8
:1026C00000FD0000FD8002FC0047440C00330420A4
:1026D000FD0000FC0047FC0000FD0000FD800260E2
:1026E0001047300A00590400FD0000FC0047FC00C0
:1026F00000630420FD8002FC0047440C00610400DC
:10270000FC8004FC0047FC00005B042073022054A2
:102710000637300A00250400FD0000FC0037FC00ED
:1027200000630420FD8002FC0037440C00250400F7
:10273000FD0000FC0037FC0000FD0000FD8002549D
:102740000837440C00270420FD0000FC0037FC0083
:1027500000FD0000FD8002FC0037440C0025040051
:10276000FD8002FC0037440C00270420690200FCB5
:1027700000374C0E00310400FD0000FC0037FC0067
:1027800000FD0000FD0000FC0037440C0027042081
:10279000FD0000FC0037FC0000FD00006102005459
:1027A00010374C0E00250400FD0000FC0037FC0033
:1027B00000330420FD0000FC0037480E00410400F7
:1027C000FD0000FC0037FC000027042068C204580C
:1027D0000647300A002904A2FCC000FC0047FC00A8
:1027E00000FD0000FCC000FC0047440C00FD80021E
:1027F000FCC000FC0047FC0000FD8002FD00825888
:102800000847440C00290400FD0000FC0047FC00C0
:1028100000FD0000FD0000FC0047440C0029840876
:10282000FD0000FC0047440C00158406FD8002FCFE
:1028300000474C0E00290400FD0000FC0047FC008E
:1028400000FD0000FD0000FC0047440C00310400C6
:10285000FD0000FC0047FC0000FD0000FD80025868
:102860001047300A00390400FD0000FC0047FC005E
:1028700000330420FD0000FC0047440C0029040044
:10288000FD0000FC0047FC00003B0420FD800260CE
:102890000647300A00310400FD0000FC0047FC0040
:1028A00000FD0000FD8002FC0047440C00FD80029A
:1028B000FD0000FC0047FC0000FD8002FD8002607E
:1028C0000847440C00310400FD0000FC0047FC00F8
:1028D00000FD0000FD8002FC0047440C00310400B4
:1028E000FD0000FC0047440C00330420FD8002FC86
:1028F00000474C0E001D0400FD0000FC0047FC00DA
:1029000000330420FD8002FC0047440C00318404A5
:10291000FD8002FC0047FC00003984027502006063
:102920001047300A004104006B021EFC0047FC0007
:1029300000FD0000710200FC0047440C003104005F
:1029400077021EFC0047FC00004304206902006877
:102950000637300A00390400FD0000FC0037FC0097
:1029600000FD0000FD0000FC0037440C00FD80026B
:10297000FD0000FC0037FC0000FD8002FD800268C5
:102980000837440C00390400FD0000FC0037FC004F
:10299000003B0420FD0000FC0037440C002504002F
:1029A000FD0000FC0037440C003B0420FD8002FCCD
:1029B00000374C0E00390400FD0000FC0037FC001D
:1029C00000FD0000FD8002FC0037440C00FD800289
:1029D000FD0000FC0037FC0000FD8002FD80026865
:1029E0001037300A00550400FD8002FC0037FC005F
:1029F000003B0420550200FC0037440C0025040075
:102A00006B021EFC0037FC000057042084C21F68C4
:102A10000637300A00390400FCC000FC0037FC0017
:102A200000FD0000FD00A2FC0037440C00FD800208
:102A3000FD0000FC0037FC0000FD8002FD80026804
:102A40000837440C00390400FD0000FC0037FC008E
:102A500000FD0000FD8002FC0037440C00398408B2
:102A6000FD0000FC0037440C00258406FD8002FCBC
:102A700000374C0E00450400FD8002FC0037FC00CE
:102A800000270420850200FC0037440E00410400AA
:102A900087021EFC0037FC00004704207502006816
:102AA00010374C0E0039040087021EFC0037FC0072
:102AB00000430420710200FC0037480E003104007E
:102AC00077021EFC0037FEC0033B0420000000001C
:102AD0008181818181938181818181817F7F717FEA
:102AE0007F7F6F6F545435350C06040202A7A18E08
:102AF00084848484848484848484848383B8838168
:102B000081818181818181818181B981818181817D
:102B1000818181818181818181BD81818183838363
:102B200083838383838383787878785D5D7B7B7B05
:102B30005C5C5C7A7B7B7B7B7B7B7B7B7B7B7B7648
:102B40006F6F696962625B5B54544C4C45453D3D17
:102B500035352D2D25251D1D16160F0F08080101D1
:102B6000F9F9F3F30000B3B3B3CCB3B3464646343C
:102B700028120000D1D1D1EBF3F9093A1B1F180A32
:102B8000000000021E00FEF0F40614F0EEF2041045
:102B9000EE080CF8F0ECCE2000DA20CC06D016E8D7
:102BA000F2E200807E802E9E7F8E7F403E7F5638F0
:102BB000F420FE10A4DE803E807F80807F8AE88043
:102BC000807F803E807E1E80807F80BA8080808073
:102BD000BE80DE908080BE80EE80D880D89EE2C429
:102BE000D6E4DEF8104EFE7F5E60667F747F7F7FE6
:102BF0007F7F7F7F7F7F7F7F7F7F7F7F7F7F7F7FE5
:102C00007F7F7F7F7F7F7F7F7F7F7F7F7F7F7F7FD4
:102C10007F7F7F507F7F766A401E64ECF6B0BAE615
:102C200080AA8A8080808080808080808080808070
:102C30008080808080808080808080808080808094
:102C40008080808080808080808080808080808084
:102C5000808080808080808080808080888080806C
:102C6000808E80A2EAAEF8EEE6FE062C2446307F87
:102C700056527F727F7F7F7F7F7F7F7F7F7F7F7FC7
:102C80007F7F7F7F7F7F7F7F7F7F7F7F7F7F7F7F54
:102C90007F7F7F7F7F7F7F7F7F7F7F7F7F7F7F7F44
:102CA0007F7F7F7F7F7F7F7F7F7F7F7F7F7F7F7F34
:102CB0007F7F7F7F7F7F7F7F727A7E605C20403462
:102CC0001610FAE8CAE8D6C8BCB08A9A8880808014
:102CD00080808080808080808080808080808080F4
:102CE00080808080808080808080808080808080E4
:102CF00080808080808080808080808080808080D4
:102D000080808080808080808080808080808080C3
:102D1000808080868690A69CC0AAC8C6C8D8DAEEF5
:102D2000F01406241E0C284640445E6652547E7FF2
:102D3000707F7F7F7F7F7F7F7F7F7F7F7F7F7F7FB2
:102D40007F7F7F7F7F7F7F7F7F7F7F7F7F7F7F7F93
:102D50007F7F7F7F7F7F7F7F7F7F7F7F7F7F7F7F83
:102D60007F7F7F7F7F7F7F7F7F7F7F7F7C6A74789D
:102D700062586644705252564E305E3E382C2E30A9
:102D8000240C14021AEA0E02F6F0F6E8F2E8F0E07B
:102D9000D4DAC8CEC0BAC8BCB2BEB0AAA298AAA2A1
:102DA0009CA0849C96908E9E8082868C8080808061
:102DB0008080808480808086808080808080808009
:102DC00080868E8092828CA09894969CAC909AAAD1
:102DD000AEB0B2B0C4BAC4C2BED0CED8D4D0DCE497
:102DE000D4ECECE8E6FADCFEF2F2FCF802060802AB
:102DF000000E060600040A120816060A0C16101623
:102E00001A081E20120A0A1610101004061C0E18AA
:102E10000C14060C080A12FE0E04101206100E12F4
:102E2000101E161604161014140E20120A16161C64
:102E30001020221A281A221A261A2228281C301C8E
:102E40002A282426282C2A2C2E363228342C242AD0
:102E50002834242A28302022222422202816221C2A
:102E6000261A1A1C0E160C140E16080A0E080C0050
:102E700002FEFAFEF8EEF8FCEAF6EEF6ECE2E4E822
:102E8000E2E4DCEED6E2D6E2DADCD8D6DED0CEDC86
:102E9000D4D4D6D4D8D8D6D2DAD4D6DCD2D4DCE2C4
:102EA000D0E2E2E6E4E0E6EADEE4E6DCEEE8E4F0E6
:102EB000E8ECE8EAF2ECEEE8E6F0F4E6F2E6FAF83E
:102EC000F0EEFEF8FCF8FEFEFE08FE0C0604FC0622
:102ED000100C0810020A08080A0A14140C10120E2A
:102EE000060E181416121618180E180E1410181AAA
:102EF0001412100C12200A140E0E121410120E12BC
:102F0000100A0C080C0810020A0E0A0E100C140607
:102F100008020E0006FC0E00060610FEFE12FA0263
:102F20000A00FCFE06FE04FE0AFA0802000200F88F
:102F300004FCFA02FC02FE0000FC06FE06FE000293
:102F4000000002000200F60000FAF608FE04FA048F
:102F5000F8FE02FCF6FCF8FCFCFCFC06000000009D
:102F60000000000016F1F80CF1F40409F427EEDF7C
:102F700000E6DF00272CDFCB33F110F4D61EF40976
:102F8000F104E616FB36C71A13C7BA0C040000DFBB
:102F90002136E6002EE61600F80CF1F1FB02F400F3
:102FA0000000F116000C10F404F40900002739CBDE
:102FB00000E30000E3BA2100F10000E61A00F8F88F
:102FC000000000FB27CBEE16E60204DF2E02F11E06
:102FD00039F40400F1000000EAF100161AF1E602EB
:102FE00000C70000E6F8D64821F10C00F4EE00001E
:102FF000E61600E6F402DF39DF02F100000010F10E
:10300000EE160900F8E61A00001E27000000F8106E
:10301000C7F100000C00160C1A0016F8F1F10C397B
:10302000D800F100390C0221F439D61EF1E6F1DFA7
:10303000F8DF0CF102EE27E627E6FB0000FBCB36BB
:10304000DFF11316F11013F100090404F400001667
:10305000F8F8001E1004020000EA0C000010F42E24
:10306000100400F116DF0C0900F41E021000021E0D
:10307000BAE30404EE100000F8F1270C0002E6F8B1
:10308000DF1E0000EA27E6001E0C09040CE6DF360E
:10309000090000000C27E30000000CF8000000F11C
:1030A00000F11610000C0C0013CE330213F10C00CB
:1030B000000410DFF400F800EADF00F4F800DF1687
:1030C0000000001EDFDF0C0400F1000013F4FBF42D
:1030D000F1E600000004DF361EF1160C00090004C2
:1030E000000902EEF1FB100200001E16E61EF11AA6
:1030F000F1001010FB0000000080808000808080C4
:1031000080808080809480A2FE7F7F62767F467F71
:103110007F7F7F7F7F7F7F7F7F7F7F7F7F7F6C7FD2
:103120001A80B2A89E80808080808080808080808D
:10313000808080BAB2BC40164A447F6C7F7F7F7F1C
:103140007F6C7C7F7F7F7F1A687FE2807FFE0AF43E
:10315000C8B0B0808080808080808080808080E265
:10316000809480B2809480FED4B02C7F6C5A7F68AB
:103170007F7F7F7F7F7F7F7F7F7F7F7F7F6CB0FEC2
:103180007F0080FE80DE80808080808080808080E4
:1031900080988080808080F0249868A8FE7F7F7F60
:1031A0007F7F7F76407F507F7F7F362C7F447A3CC5
:1031B00046B200B08090808080808084BCB08080E7
:1031C0009E90A280FE949AE2E2A8E24ED27F807F97
:1031D0007F367F627F7F687F7F7F687F7A7F0C7F0B
:1031E0006C1AB2C87F6C80DE1680E2B6801A9480BA
:1031F00080CA801A90809094808000808072321AF9
:103200004A625A503C6CFE7F507F7F7F7F7F7F58A1
:103210007FF07FE616001AB0BA0C90B6EA80B08054
:10322000808A8080948080D4804A80CAEA8080E24C
:1032300016807F3210064EFE7F1EF07F7FF47F7F68
:1032400050E614F07F00009E00F406E68ABCB0FE53
:1032500080F080B0BCD4368AC490988094AC98AC8E
:1032600024CAE2CA80F602F032227F907F4A10BA66
:103270007FBA7FCA2C5E36FE5028E20AE22C160086
:1032800044ACD200C8E2D8B08094C88080A28080CC
:1032900080A28094802498E2A61A280CFE147F3223
:1032A000EC7F687F326C687F66004E0C00323C1AFF
:1032B00016DE363CB0D236CA8AACCEC880EA80A8C8
:1032C00080B600EA94C8AC94B6A6E2D8CAA8F43C8A
:1032D000A24EFE003610065A2222DC5E1E366C68B4
:1032E0001A76500A2222383600681ECAFEF424AC30
:1032F000F080E2A28090801A8080F684C4C08E0A9A
:10330000AC8ADCF0A8C02CE2F002148002222C5E11
:10331000D244F0003CB65A00EC4000F60C22C0E665
:10332000E28024B68400D8D2C09EEA9EF6981EA2FF
:10333000C814DCA8DEE60AACE60000EC4E00F6C4D9
:103340003624D8060616E6D23206FEFE00381EFEE9
:1033500000F41A28EC0CECF6D2BCD4F0CAC8CAC4EB
:103360009A10B094C0BACAF0C0F0B200C8E6B6FE77
:10337000CAD8F014E2EA38DE06FE4024004EE62EFB
:103380002E003222244032FE361616EACED206989D
:103390000000B3E5E620F5C5C0AEABA1E19811246D
:1033A0001FBECFEFD8E0DEBFCDBF11E0A0E0B1E09F
:1033B000E0E0FEE502C005900D92AE3BB107D9F703
:1033C00016E0AEEBB1E001C01D92A031B107E1F70C
:1033D0000E94A52E0C94FE2E0C940000DC01ED91B1
:1033E000FC91119710860895CF93DF93DC0114961A
:1033F0008C9114978F3319F1ED91FC911197C82F8F
:10340000D0E0CC0FDD1FCE5BDE4F888199819487A1
:10341000838718968C9118978F7E18968C9318979F
:103420008581882321F08287ED91FC91119780811D
:103430008F3F11F414821582DF91CF910895ED91A1
:10344000FC911197EDCFFC018781982F92959F7089
:103450008F70992329F0A081B1811F969C931F97AB
:10346000882321F0A081B18150968C93A081B181F5
:1034700051968C915197843030F484818F3319F0B8
:1034800052961C9252970895FC01A081B181159625
:103490008C91159712968C931297808588608087FF
:1034A0000895DC01ED91FC91119785818093B6021E
:1034B00080E4809380051092B90280918305826038
:1034C000809383050895FC01A081B18187811196C5
:1034D0008C9311978085816080870895DC01ED9140
:1034E000FC9111972581922F92959F70990F892FAA
:1034F000880F880F890F2F70820F8093B902209157
:103500008305822F90E0809590958370907000974E
:1035100041F080E4809380058091CD028F5F80939D
:10352000B6022160209383050895DC01ED91FC91A2
:1035300011978581282F2F7082958F70853009F41F
:1035400060C0863060F0893009F469C08A3030F19B
:103550008A3009F466C08B3009F442C00895823085
:1035600009F471C08430B9F18130C1F78681978147
:10357000820F911D23E0893592070CF06DC08137D1
:10358000910514F481E790E09783868318968C91D7
:103590001897826018968C93189708958630F1F6E4
:1035A000222309F460C08685882309F45AC081501B
:1035B0008687ED91FC9111978685882379F2858520
:1035C00081508093B90280E4809380058091CD0280
:1035D0008093B6020895283008F041C0218B0895E9
:1035E0008181821B8183803424F0ED91FC911197BD
:1035F000118218968C911897816018968C93189761
:1036000008951696EC911697F0E0EE0FFF1FEE0F5F
:10361000FF1FEE0FFF1FE254FE4F22830895118615
:1036200008958181820F818380342CF0ED91FC918B
:1036300011978FE3818318968C9118978160189663
:103640008C931897089586819781821B910923E0B6
:10365000893592070CF493CF88E593E095CF118AD2
:1036600008952687A6CF8091800585870895DC017F
:103670001796EC911797E03270F0E093BA02F0E001
:10368000EE0FFF1FE058FC4F8081918190933F0324
:1036900080933E030895E09384050895CF93DF93CC
:1036A000DC01CD91DC911197EB8188858F5F888754
:1036B000833020F0CD91DC9111971886CD91DC916B
:1036C000119788858130D9F0823019F48D818F70FF
:1036D000E80FE43208F0E3E2F0E0EE0FFF1FEE5BEC
:1036E000FE4F808191819F838E8318968C911897CD
:1036F000826018968C931897DF91CF9108958D81F1
:1037000082958F70E80FE5CFFC01A081B1811596FD
:103710008C91159716962D913C911797281B31097E
:1037200083E0293538076CF42137310514F421E79B
:1037300030E017963C932E931697808582608087A1
:10374000089528E533E017963C932E9316978085CD
:10375000826080870895FC01A081B18115968C91CB
:10376000159716962D913C911797280F311D83E0E0
:10377000293538076CF42137310514F421E730E09E
:1037800017963C932E9316978085826080870895C4
:1037900028E533E017963C932E9316978085826038
:1037A00080870895FC01A081B18115968C911597B1
:1037B000982F9F7082958F70893071F08C3009F04E
:1037C00008958091BC029817D8F311961C92119716
:1037D000808581608087089519968C9119978F5FF5
:1037E00019968C931997891758F3A081B181139674
:1037F0008C911397848380858061808719961C92B1
:1038000019970895CF93DF93DC01ED91FC91119707
:103810002289203234F02F53228BED91FC911197A5
:103820002289C22FDD27C7FDD095D7FD23C0D0E068
:10383000C256DE4F88819089989FC0011124880F5D
:10384000892F881F990B9195948B838B27FF05C037
:10385000909581959F4F948B838B8785820F828B68
:1038600018968C911897826018968C931897DF9110
:10387000CF910895D095C195DF4FD9CFFC01A0819C
:10388000B18115968C911597982F92959F708F7096
:10389000992369F411969C911197981B11969C930A
:1038A000119797FD19C080858160808708958823CE
:1038B000E9F711968C911197890F11968C931197B6
:1038C00080348CF3A081B1818FE311968C93119792
:1038D000808581608087EACFA081B18111961C929A
:1038E0001197808581608087E1CFCF93DF93DC01E2
:1038F000ED91FC9111972289203234F02F53228BC5
:10390000ED91FC9111972289C22FDD27C7FDD0953B
:10391000D7FD46C0D0E0C256DE4F88819089989F7F
:10392000C0011124880F892F881F990B9195948BC2
:10393000838B27FF05C0909581959F4F948B838B38
:103940008785820F828B18968C91189782601896C3
:103950008C931897ED91FC9111978581982F9295F2
:103960009F708F70992379F49181981B918397FDB3
:103970001BC018968C911897816018968C93189795
:10398000DF91CF9108958823D9F78181890F8183B1
:1039900080347CF3ED91FC9111978FE38183E9CF23
:1039A000D095C195DF4FB6CFED91FC911197118263
:1039B000E0CFFC01E859FF4F84910895FC01E859DC
:1039C000FF4F84910895FC01E859FF4F25913491F0
:1039D000C90108954115510581F0A62FB72F20E0A8
:1039E00030E0F901E80FF91FE859FF4FE491ED933A
:1039F0002F5F3F4F24173507A0F30895DF93CF9330
:103A000000D000D0CDB7DEB7DE01119688E690E099
:103A1000FC0124913196E4911196EC931197FC01ED
:103A20003296E4911296EC9312970396FC018491DE
:103A300013968C931397213441F080E00F900F90F0
:103A40000F900F90CF91DF9108958A818635A9F765
:103A50008B81823591F781E09C819D3471F7EECFA7
:103A6000FC018091C4026817D8F4608370E020E004
:103A700033E0629FC001639F900D729F900D1124EF
:103A80002091C5023091C602820F931F92838183D9
:103A90008CE0489FA00111245483438381E0089562
:103AA00080E00895680F791F83E0693578073CF45A
:103AB0006137710514F461E770E0CB01089568E5A2
:103AC00073E0CB0108950F931F93CF93DF938CE6A0
:103AD00090E0FC0124912093BE023196E491E093A2
:103AE000BF02FC013296E491E093C002FC013396E0
:103AF00024912093C102FC013496E491E093C20228
:103B0000FC013596E491E093C302FC013696E49102
:103B1000E093C402FC013796E491E093C502FC01F6
:103B20003896E491E093C602FC013996E491E09363
:103B3000C702FC013A96E491E093C802FC013B966F
:103B4000E491E093C902FC013C96E491E093CA023F
:103B5000FC013D96E491E093CB020E96FC0184912A
:103B60008093CC024091C2025091C30230E02115F3
:103B7000310579F0A0E4B3E080E090E0FC01E40FCF
:103B8000F51FE859FF4FE491ED93019682179307D3
:103B9000A8F34091BF025091C0026091BE02262F4F
:103BA00030E0220F331F220F331F220F331F211546
:103BB000310579F0AEEBB1E080E090E0FC01E40F7C
:103BC000F51FE859FF4FE491ED9301968217930793
:103BD000A8F32091C8023091C9026623B9F0A2ED82
:103BE000B5E0EEEBF1E06150462F50E0440F551F79
:103BF0004C525A4F2D933D9380819181880F991F8C
:103C0000280F391F3896A417B507A1F7E0ECF3E0A9
:103C100020E230E0C5E0D0E000E21EE4C901880FF8
:103C2000991FBE010E94C82EC8010E94C82E619330
:103C300071932F5F3F4F81E02030380779F780E0A4
:103C400092EBA0E0B0E08093CE029093CF02A093DD
:103C5000D002B093D1021092CD021092800581E083
:103C60008093B6021092B9021092830540914003EE
:103C70008091C4024817D0F44093850550E020E0BD
:103C800033E0429FC001439F900D529F900D11243D
:103C90002091C5023091C602820F931F9093870531
:103CA00080938605109289051092880586E080939E
:103CB000BC021092840580917A0490917B049093C9
:103CC0003F0380933E038DE78093BA023FE3309336
:103CD000D5028FEF9FEF9093DE028093DD0210926A
:103CE000DF021092E00210928B0510928A0540E3E9
:103CF000409393054093D4023093F0029093F902DD
:103D00008093F8021092FA021092FB0210929D0525
:103D100010929C0520E12093A5052093EF0230939B
:103D20000B039093140380931303109215031092C6
:103D300016031092AF051092AE054093B70540935D
:103D40000A033093260390932F0380932E0310923F
:103D50003003109231031092C1051092C0052093D8
:103D6000C9052093250381E08093BD02DF91CF91A7
:103D70001F910F910895DF93CF9300D00F92CDB78D
:103D8000DEB7DB01FC01E859FF4F2491FC01E75944
:103D9000FF4F449186599F4FFC018491922F969535
:103DA00096959C9330E023703070220F331F220FC2
:103DB000331F942F9295969596959370922B11960A
:103DC0009C93119746954F7112964C9312971396A8
:103DD0008C9313970F900F900F90CF91DF910895D0
:103DE000CF93DF93DC01CD91DC91119788818F3FD8
:103DF00009F457C090E0EB81F0E0EE0FFF1FEE5B9F
:103E0000FE4F208131813F832E8343E029353407E3
:103E100020F028E533E03F832E831296ED91FC914C
:103E20001397EC01CC0FDD1FCE52DA4F2881398178
:103E300031832083128213821482158218962C916A
:103E40001897226018962C93DC01AA0FBB1FAA0FAB
:103E5000BB1FAA0FBB1FA254BE4F16968D919C91FB
:103E60001797009709F52D913C9140E050E069E0EB
:103E7000220F331F441F551F6A95D1F722873387BE
:103E800044875587AA2797FDA095BA2F29E0880F68
:103E9000991FAA1FBB1F2A95D1F786879787A08BEA
:103EA000B18BDF91CF91089514962D913C91159788
:103EB000280F391F442737FD4095542F79E0220FF2
:103EC000331F441F551F7A95D1F7D8CFCF93DF9377
:103ED000FC0184818F3309F4B5C0208524FD49C0DD
:103EE00020FF09C0A281B381C081D1818981189648
:103EF0008C931897208523FF09C0A281B381C081CC
:103F0000D1818A8119968C931997208521FF1CC035
:103F1000A081B18116962D913C91179753968D9162
:103F20009C915497009799F440E050E0C281D3816E
:103F30006091CE027091CF028091D0029091D10217
:103F40000E94DC2E3F832E83DF91CF910895280FAE
:103F5000391F43E0293534070CF076C0213731058D
:103F60000CF483C040E050E054961C921E9253978C
:103F7000DDCF80819181DC013C913F3F09F4B0CFDE
:103F8000632F70E013962C91A22FB0E0AA0FBB1FF5
:103F9000AE5BBE4F2D913C911197EC013F832E8378
:103FA00043E02935340720F028E533E03F832E83B2
:103FB000A281B381CB01880F991F8E529A4FEC01D9
:103FC0008881998111969C938E9312961D921D92D1
:103FD0001D921C921597808582608087EB01CC0F23
:103FE000DD1FCC0FDD1FCC0FDD1FC254DE4F2E8135
:103FF0003F812115310569F14C815D81420F531FCD
:10400000662757FD6095762F99E0440F551F661F70
:10401000771F9A95D1F71A964D935D936D937C9384
:104020001D97442737FD4095542F69E0220F331F19
:10403000441F551F6A95D1F71E962D933D934D93BE
:104040005C93519720854CCF28E533E040E050E069
:104050008BCF4881598160E070E089E0440F551FA3
:10406000661F771F8A95D1F7D6CF21E730E040E071
:1040700050E07ACFEF92FF920F931F93DF93CF938D
:10408000CDB7DEB729970FB6F894DEBF0FBECDBF10
:1040900020918805309189058E010F5F1F4FD8014F
:1040A000ECE8F1E089E001900D928150E1F782EDBA
:1040B00092E09A8389838AE895E09C838B83809140
:1040C000860590918705820F931FFC01E859FF4FE9
:1040D0003491FC01E759FF4F2491FC01E659FF4F51
:1040E0005491432F469546954D83832F90E08370DE
:1040F0009070880F991F880F991FE22FE295E6951F
:10410000E695E370E82BEE8326952F712F83588771
:10411000E093D6025093D7022223A9F02150209396
:10412000D202A22FB0E0AA0FBB1FAA0FBB1FAA0F7B
:10413000BB1FA254BE4F13968C9113978093D3024A
:104140008985816089874F3311F04093D502809132
:10415000DA02882399F01092DA02A091D502B0E039
:10416000AA0FBB1FAE5BBE4F8D919C911197909390
:10417000D9028093D802898582608987EE2311F461
:10418000552369F0F0E0EE0FFF1FE050FF4F019064
:10419000F081E02D309719F0C80109954D814F331A
:1041A00009F4CAC2998594FD33C390FF09C0EB811D
:1041B000FC81A981BA8111968C911197808799858C
:1041C00093FF08C0EB81FC81A981BA8112968C9182
:1041D0001297818791FF1AC0E981FA812681378180
:1041E00083899489009709F095C240E050E0EB8004
:1041F000FC806091CE027091CF028091D0029091AC
:10420000D1020E94DC2EF701378326832091880596
:10421000309189052D5F3F4F3093890520938805A4
:10422000D801ECE8F1E089E001900D928150E1F7CE
:104230008DEE92E09A8389838CE995E09C838B8351
:104240008091860590918705820F931FFC01E859A4
:10425000FF4F3491FC01E759FF4F2491FC01E659CF
:10426000FF4F5491432F469546954D83832F90E001
:1042700083709070880F991F880F991FE22FE29525
:10428000E695E695E370E82BEE8326952F712F8354
:104290005887E093F1025093F2022223A9F02150B3
:1042A0002093ED02A22FB0E0AA0FBB1FAA0FBB1FE5
:1042B000AA0FBB1FA254BE4F13968C9113978093E5
:1042C000EE028985816089874F3311F04093F002B7
:1042D0008091F502882399F01092F502A091F002E6
:1042E000B0E0AA0FBB1FAE5BBE4F8D919C911197A2
:1042F0009093F4028093F302898582608987EE238C
:1043000011F4552369F0F0E0EE0FFF1FE050FF4F6E
:104310000190F081E02D309719F0C80109954D8189
:104320004F3309F40BC2998594FD41C390FF09C036
:10433000EB81FC81A981BA8111968C9111978087BC
:10434000998593FF08C0EB81FC81A981BA811296FF
:104350008C911297818791FF1AC0E981FA81268199
:10436000378183899489009709F0C6C140E050E005
:10437000EB80FC806091CE027091CF028091D002E0
:104380009091D1020E94DC2EF70137832683209181
:104390008805309189052D5F3F4F30938905209323
:1043A0008805D801ECE8F1E089E001900D92815098
:1043B000E1F788E093E09A8389838EEA95E09C8315
:1043C0008B838091860590918705820F931FFC0156
:1043D000E859FF4F3491FC01E759FF4F2491FC014C
:1043E000E659FF4F5491432F469546954D83832FB1
:1043F00090E083709070880F991F880F991FE22FAB
:10440000E295E695E695E370E82BEE8326952F710D
:104410002F835887E0930C0350930D032223A9F0B8
:10442000215020930803A22FB0E0AA0FBB1FAA0FB0
:10443000BB1FAA0FBB1FA254BE4F13968C9113979C
:10444000809309038985816089874F3311F04093F8
:104450000B0380911003882399F010921003A09110
:104460000B03B0E0AA0FBB1FAE5BBE4F8D919C91BA
:10447000119790930F0380930E038985826089873B
:10448000EE2311F4552369F0F0E0EE0FFF1FE0502A
:10449000FF4F0190F081E02D309719F0C801099588
:1044A0004D814F3309F446C1998594FD49C190FF70
:1044B00009C0EB81FC81A981BA8111968C91119779
:1044C0008087998593FF08C0EB81FC81A981BA811F
:1044D00012968C911297818791FF1AC0E981FA8117
:1044E0002681378183899489009709F0E7C040E0ED
:1044F00050E0EB80FC806091CE027091CF02809101
:10450000D0029091D1020E94DC2EF70137832683DE
:1045100020918805309189052D5F3F4F30938905A3
:1045200020938805D801ECE8F1E089E001900D9234
:104530008150E1F783E293E09A83898380EC95E0F0
:104540009C838B838091860590918705820F931FB2
:10455000FC01E859FF4F3491FC01E759FF4F2491CA
:10456000FC01E659FF4F5491432F469546954D83E4
:10457000832F90E083709070880F991F880F991F88
:10458000E22FE295E695E695E370E82BEE8326951B
:104590002F712F835887E0932703509328032223FA
:1045A000A9F0215020932303A22FB0E0AA0FBB1F34
:1045B000AA0FBB1FAA0FBB1FA254BE4F13968C910C
:1045C0001397809324038985816089874F3311F085
:1045D0004093260380912B03882399F010922B039C
:1045E000A0912603B0E0AA0FBB1FAE5BBE4F8D911A
:1045F0009C91119790932A03809329038985826067
:104600008987EE2311F4552369F0F0E0EE0FFF1FC8
:10461000E050FF4F0190F081E02D309719F0C80174
:1046200009954D814F3309F483C0998594FD58C194
:1046300090FF09C0EB81FC81A981BA8111968C9110
:1046400011978087998593FF08C0EB81FC81A98130
:10465000BA8112968C911297818791FF19C0E981D6
:10466000FA8126813781838994890097A9F540E0F2
:1046700050E00B811C816091CE027091CF0280913D
:10468000D0029091D1020E94DC2EF801378326835C
:104690008091880590918905039690938905809370
:1046A000880529960FB6F894DEBF0FBECDBFCF9117
:1046B000DF911F910F91FF90EF900895280F391F00
:1046C00043E0293534070CF4DFC128E533E040E04E
:1046D00050E0148A138A0DCF280F391F43E0293583
:1046E00034070CF0CCC1213731050CF412C240E084
:1046F00050E0148A138ABDCF280F391F43E02935B3
:1047000034070CF4CFC128E533E040E050E0148AD0
:10471000138A2ECE280F391F43E0293534070CF4B5
:10472000BAC128E533E040E050E0148A138A5FCD37
:1047300099857ECF9985BBCE998537CD9985F6CD64
:10474000A981BA818C918F3F09F4B1CE90E0139684
:10475000EC911397F0E0EE0FFF1FEE5BFE4F208110
:10476000318117963C932E931697E3E029353E0747
:1047700030F028E533E017963C932E9316972B8163
:104780003C81DC01AA0FBB1FAE52BA4F4D915C9128
:104790001197F9015183408312821382148215828A
:1047A000698562606987FC01EE0FFF1FEE0FFF1F36
:1047B000EE0FFF1FE254FE4F468157814115510510
:1047C00009F49BC184819581840F951FAA2797FDC9
:1047D000A095BA2FF9E0880F991FAA1FBB1FFA9561
:1047E000D1F7F90182879387A487B587CA01AA27E1
:1047F00097FDA095BA2F29E0880F991FAA1FBB1F0C
:104800002A95D1F786879787A08BB18B962F4FCEAD
:10481000A981BA818C918F3F09F4C7CC90E013969F
:10482000EC911397F0E0EE0FFF1FEE5BFE4F20813F
:10483000318117963C932E93169743E02935340720
:1048400030F028E533E017963C932E9316972B8192
:104850003C81DC01AA0FBB1FAE52BA4F4D915C9157
:104860001197F901518340831282138214821582B9
:10487000698562606987FC01EE0FFF1FEE0FFF1F65
:10488000EE0FFF1FE254FE4F46815781411551053F
:1048900009F40EC184819581840F951FAA2797FD85
:1048A000A095BA2F79E0880F991FAA1FBB1F7A9590
:1048B000D1F7F90182879387A487B587CA01AA2710
:1048C00097FDA095BA2F29E0880F991FAA1FBB1F3B
:1048D0002A95D1F786879787A08BB18B962F65CCC9
:1048E000A981BA818C918F3F09F4A2CE90E01396F2
:1048F000EC911397F0E0EE0FFF1FEE5BFE4F20816F
:10490000318117963C932E931697E3E029353E07A5
:1049100030F028E533E017963C932E931697EB8101
:10492000FC81DC01AA0FBB1FAE52BA4F2D913C9106
:10493000318320831282138214821582698562601A
:104940006987DC01AA0FBB1FAA0FBB1FAA0FBB1FE1
:10495000A254BE4F16968D919C911797009709F41B
:10496000B3C014962D913C911597280F391F4427F9
:1049700037FD4095542FA9E0220F331F441F551FC8
:10498000AA95D1F72287338744875587AA2797FDB1
:10499000A095BA2F59E0880F991FAA1FBB1F5A95DF
:1049A000D1F786879787A08BB18B962F41CEA981AF
:1049B000BA818C918F3F09F4B9CC90E01396EC91B9
:1049C0001397F0E0EE0FFF1FEE5BFE4F2081318169
:1049D00017963C932E931697E3E029353E0730F067
:1049E00028E533E017963C932E9316972B813C8154
:1049F000DC01AA0FBB1FAE52BA4F4D915C911197CB
:104A0000F9015183408312821382148215826985D1
:104A100062606987FC01EE0FFF1FEE0FFF1FEE0FB4
:104A2000FF1FE254FE4F468157814115510509F49D
:104A300058C084819581840F951FAA2797FDA09562
:104A4000BA2F79E0880F991FAA1FBB1F7A95D1F75B
:104A5000F90182879387A487B587CA01AA2797FDA2
:104A6000A095BA2F29E0880F991FAA1FBB1F2A956E
:104A7000D1F786879787A08BB18B962F57CC28E5E7
:104A800033E040E050E035CE213731050CF450C022
:104A900040E050E01ECE213731050CF43FC040E02D
:104AA00050E043CE21373105F4F140E050E02FCE05
:104AB00080819181A0E0B0E0E9E0880F991FAA1FF2
:104AC000BB1FEA95D1F7F5CE2D913C91119740E0AF
:104AD00050E079E0220F331F441F551F7A95D1F71C
:104AE00051CF80819181A0E0B0E0E9E0880F991F6B
:104AF000AA1FBB1FEA95D1F7ABCF80819181A0E0BF
:104B0000B0E079E0880F991FAA1FBB1F7A95D1F7F3
:104B100068CE21E730E040E050E0EBCD21E730E027
:104B200040E050E002CE21E730E040E050E0EFCD41
:104B300021E730E040E050E0CCCDEF92FF920F93C0
:104B40001F93DF93CF93CDB7DEB729970FB6F894B5
:104B5000DEBF0FBECDBF8E010F5F1F4FD801E5E94D
:104B6000F1E089E001900D928150E1F782ED92E051
:104B70009A838983E091D602EE2329F48091D702AB
:104B8000882309F448C08AE895E09C838B83F0E091
:104B9000EE0FFF1FE05EFE4F0190F081E02D309799
:104BA000D1F1C80109958D818F3309F497C1998599
:104BB00094FD96C190FF09C0EB81FC81A981BA8167
:104BC00011968C9111978087998593FF08C0EB818E
:104BD000FC81A981BA8112968C911297818791FFED
:104BE0001AC0E981FA8126813781838994890097E7
:104BF00009F044C140E050E0EB80FC806091CE02BF
:104C00007091CF028091D0029091D1020E94DC2E4F
:104C1000F70137832683D801E5E9F1E089E00190C7
:104C20000D928150E1F78DEE92E09A838983E091B5
:104C3000F102EE2329F48091F202882309F448C09E
:104C40008CE995E09C838B83F0E0EE0FFF1FE05E24
:104C5000FE4F0190F081E02D3097D1F1C801099508
:104C60008D818F3309F436C1998594FD5CC290FF24
:104C700009C0EB81FC81A981BA8111968C911197B1
:104C80008087998593FF08C0EB81FC81A981BA8157
:104C900012968C911297818791FF1AC0E981FA814F
:104CA0002681378183899489009709F003C140E008
:104CB00050E0EB80FC806091CE027091CF02809139
:104CC000D0029091D1020E94DC2EF7013783268317
:104CD000D801E5E9F1E089E001900D928150E1F71A
:104CE00088E093E09A838983E0910C03EE2329F412
:104CF00080910D03882309F448C08EEA95E09C83D7
:104D00008B83F0E0EE0FFF1FE05EFE4F0190F0811D
:104D1000E02D3097D1F1C80109958D818F3309F4C9
:104D2000DBC0998594FD9EC190FF09C0EB81FC8199
:104D3000A981BA8111968C9111978087998593FFEB
:104D400008C0EB81FC81A981BA8112968C911297DF
:104D5000818791FF1AC0E981FA8126813781838991
:104D60009489009709F098C040E050E0EB80FC8007
:104D70006091CE027091CF028091D0029091D102C9
:104D80000E94DC2EF70137832683D801E5E9F1E0A4
:104D900089E001900D928150E1F783E293E09A83DC
:104DA0008983E0912703EE2329F480912803882347
:104DB00009F447C080EC95E09C838B83F0E0EE0F14
:104DC000FF1FE05EFE4F0190F081E02D3097C9F1AA
:104DD000C80109958D818F3309F47AC0998594FDB6
:104DE000E0C090FF09C0EB81FC81A981BA811196D6
:104DF0008C9111978087998593FF08C0EB81FC8186
:104E0000A981BA8112968C911297818791FF19C05E
:104E1000E981FA8126813781838994890097F1F4A9
:104E200040E050E00B811C816091CE027091CF0276
:104E30008091D0029091D1020E94DC2EF80137833C
:104E4000268329960FB6F894DEBF0FBECDBFCF9153
:104E5000DF911F910F91FF90EF900895280F391F58
:104E600043E0293534070CF0C8C1213731050CF077
:104E700025C221E730E040E050E0C3C1280F391FD0
:104E800043E0293534070CF4AFC128E533E040E0B6
:104E900050E0148A138AB0CE280F391F43E0293519
:104EA00034070CF4B1C128E533E040E050E0148A47
:104EB000138A5CCF280F391F43E0293534070CF4DF
:104EC000ACC128E533E040E050E0148A138AF1CE0B
:104ED000998587CF9985CBCE998526CF99856ACE3E
:104EE000A981BA818C918F3F09F464CE90E013962A
:104EF000EC911397F0E0EE0FFF1FEE5BFE4F208169
:104F0000318117963C932E931697E3E029353E079F
:104F100030F028E533E017963C932E931697EB81FB
:104F2000FC81DC01AA0FBB1FAE52BA4F2D913C9100
:104F30003183208312821382148215826985626014
:104F40006987DC01AA0FBB1FAA0FBB1FAA0FBB1FDB
:104F5000A254BE4F16968D919C911797009709F019
:104F60009BC12D913C9140E050E0A9E0220F331FFE
:104F7000441F551FAA95D1F7228733874487558749
:104F8000AA2797FDA095BA2F29E0880F991FAA1F7D
:104F9000BB1F2A95D1F786879787A08BB18B962F59
:104FA00009CEA981BA818C918F3F09F41ACF90E084
:104FB0001396EC911397F0E0EE0FFF1FEE5BFE4FA0
:104FC0002081318117963C932E931697F3E0293573
:104FD0003F0730F028E533E017963C932E93169761
:104FE000EB81FC81DC01AA0FBB1FAE52BA4F2D91A1
:104FF0003C91318320831282138214821582698549
:1050000062606987DC01AA0FBB1FAA0FBB1FAA0F32
:10501000BB1FA254BE4F16968D919C911797009777
:1050200009F028C12D913C9140E050E079E0220F39
:10503000331F441F551F7A95D1F722873387448742
:105040005587AA2797FDA095BA2F49E0880F991F89
:10505000AA1FBB1F4A95D1F786879787A08BB18B74
:10506000962FBFCEA981BA818C918F3F09F45CCE77
:1050700090E01396EC911397F0E0EE0FFF1FEE5BBC
:10508000FE4F2081318117963C932E931697E3E0D3
:1050900029353E0730F028E533E017963C932E93F0
:1050A0001697EB81FC81DC01AA0FBB1FAE52BA4FF1
:1050B0002D913C91318320831282138214821582B8
:1050C000698562606987DC01AA0FBB1FAA0FBB1F3D
:1050D000AA0FBB1FA254BE4F16968D919C91179795
:1050E000009709F0B5C02D913C9140E050E0A9E057
:1050F000220F331F441F551FAA95D1F722873387EC
:1051000044875587AA2797FDA095BA2F29E0880FD5
:10511000991FAA1FBB1F2A95D1F786879787A08B57
:10512000B18B962F01CEA981BA818C918F3F09F462
:105130009ECD90E01396EC911397F0E0EE0FFF1FD9
:10514000EE5BFE4F2081318117963C932E9316978C
:10515000E3E029353E0730F028E533E017963C932D
:105160002E931697EB81FC81DC01AA0FBB1FAE5278
:10517000BA4F2D913C913183208312821382148285
:105180001582698562606987DC01AA0FBB1FAA0FBF
:10519000BB1FAA0FBB1FA254BE4F16968D919C91A8
:1051A0001797009709F042C02D913C9140E050E0E4
:1051B000A9E0220F331F441F551FAA95D1F722875C
:1051C000338744875587AA2797FDA095BA2F29E0F2
:1051D000880F991FAA1FBB1F2A95D1F7868797872B
:1051E000A08BB18B962F43CD213731050CF06FC0CA
:1051F00021E730E040E050E04CCE28E533E040E0ED
:1052000050E0148A138A0ECE213731050CF05CC0B1
:1052100021E730E040E050E04ACE213731050CF084
:1052200050C021E730E040E050E04FCE14962D9181
:105230003C911597280F391F442737FD4095542F6F
:1052400079E0220F331F441F551F7A95D1F7B7CF4E
:1052500014962D913C911597280F391F442737FD3F
:105260004095542F79E0220F331F441F551F7A9524
:10527000D1F744CF14962D913C911597280F391FE3
:10528000442737FD4095542FA9E0220F331F441FB8
:10529000551FAA95D1F7D1CE14962D913C91159713
:1052A000280F391F442737FD4095542F79E0220FEE
:1052B000331F441F551F7A95D1F75ECE40E050E072
:1052C000A0CF40E050E001CE40E050E0F0CD40E023
:1052D00050E0DFCD8093CD029091C1028917C0F5D7
:1052E000982F9F5FE82FF0E06093800560341CF0FA
:1052F0001092800560E09093B6021092B90210926D
:105300008305E05CFC4F40818091C4024817F0F4B3
:105310004093850550E020E033E0429FC001439F69
:10532000900D529F900D11242091C5023091C6021C
:10533000820F931F90938705809386058CE0689F6A
:10534000B0011124709389056093880581E0089568
:105350001092CD02E0E0F0E091E0C6CF8091BC0277
:105360008F5F8093BC0290918405891708F44DC02B
:105370001092BC0280918005982F9F5F90938005CA
:1053800080340CF43FC0E091B6028091B902E09302
:10539000CD029091C102E917F0F59E2F9F5FF0E0DA
:1053A0008034B4F5682F6F5F782F9093B602109217
:1053B000B90210928305E05CFC4F40819091C402D9
:1053C0004917F0F44093850550E020E033E0429F18
:1053D000C001439F900D529F900D11242091C50252
:1053E0003091C602820F931F9093870580938605A4
:1053F0008CE0789FC00111249093890580938805E3
:10540000609380050E943A2008950E949D2508958A
:1054100070E061E0CACF1092CD02E0E0F0E091E0F0
:10542000BFCF0895089508950895089508950895A3
:10543000DC01ED91FC91119726813781838594855C
:1054400028173907C0F44285240F311D43E0293560
:1054500034076CF128E533E03783268382179307FE
:1054600010F49783868318968C911897826018960B
:105470008C931897089582179307A8F74285241BE9
:10548000310943E029353407C4F42137310514F4D8
:1054900021E730E0378326832817390710F3189661
:1054A0008C911897826018968C93189708952137DD
:1054B000310594F621E730E0CFCF28E533E0EACF9D
:1054C0000E94182A0895CF93DF93EC010E94182AB6
:1054D000E881F9818581982F92959F708F7099232B
:1054E00059F49181981B918397FD12C08885816042
:1054F0008887DF91CF9108958823D9F78181890F1B
:10550000818380349CF3E881F9818FE38183EECF3E
:10551000E881F9811182EACFCF93DF93DC01ED912D
:10552000FC9111972289203234F02F53228BED9178
:10553000FC9111972289C22FDD27C7FDD095D7FD99
:1055400023C0D0E0C256DE4F88819089989FC00169
:105550001124880F892F881F990B9195948B838B29
:1055600027FF05C0909581959F4F948B838B8785EE
:10557000820F828B18968C911897826018968C9364
:105580001897DF91CF910895D095C195DF4FD9CF6E
:10559000089508950895FC01A081B18115968C911C
:1055A0001597982F92959F708F70992369F4119693
:1055B0009C911197981B11969C93119797FD19C078
:1055C00080858160808708958823E9F711968C9102
:1055D0001197890F11968C93119780348CF3A081C9
:1055E000B1818FE311968C931197808581608087BC
:1055F000EACFA081B18111961C92119780858160BC
:105600008087E1CF08950895089508951F93CF935B
:10561000DF93F89480E880936100809361000E949A
:10562000631D82E084BD85BD94E697BD99EA9093A1
:105630008000909180009093800091E09093810091
:1056400023EA2093B0009093B10080936E008AB15A
:10565000886F8AB952988FEF84B91092BB02789400
:10566000C0E0D3E01CE08091BB028823E1F380918D
:10567000BB0281508093BB028091BC028F5F8093FC
:10568000BC0290918405891708F449C01092BC02AD
:1056900080918005982F9F5F909380058034E4F17E
:1056A000E091B6028091B902E093CD029091C102DF
:1056B000E917D8F59E2F9F5FF0E080349CF5482FC6
:1056C0004F5F582F9093B6021092B9021092830543
:1056D000E05CFC4F20819091C4022917D8F42093FC
:1056E000850530E02C9FC0012D9F900D3C9F900DB3
:1056F00011242091C5023091C602820F931F90930E
:10570000870580938605519FC001112490938905D8
:1057100080938805409380050E943A20A4CF0E9480
:105720009D25A1CF50E041E0CDCF1092CD02E0E029
:10573000F0E091E0C2CF1F920F920FB60F921124AA
:10574000EF92FF920F931F932F933F934F935F938B
:105750006F937F938F939F93AF93BF93CF93DF9379
:10576000EF93FF931BB88091410190E090938B00E1
:1057700080938A00809140018093B4008091BD02A3
:10578000813009F46FC2E0918A05F0918B05309762
:1057900009F489C080918C0590918D05A0918E05AA
:1057A000B0918F05292F3A2F4B2F5527E20FF31F6A
:1057B000E859FF4FE49170919205772309F050C2A8
:1057C00060E0209190053091910540E050E0280F75
:1057D000391F4A1F5B1F20938C0530938D05409322
:1057E0008E0550938F058091940590919505A09119
:1057F0009605B0919705281739074A075B07C8F047
:105800008091980590919905A0919A05B0919B057A
:105810000097A105B10509F444C2281B390B4A0BB6
:105820005B0B20938C0530938D0540938E05509330
:105830008F0580919305C82FD0E0FF27E7FDF095F5
:10584000A72FB0E04FE350E04C1B5D0BE49FC0017D
:10585000E59F900DF49F900D1124082E892F000CC8
:10586000881F990B000C881F991F8A9FA0018B9F8E
:10587000500D9A9F500D1124EC9FC001ED9F900D8B
:10588000FC9F900D1124082E892F000C881F990B66
:10589000000C881F991F8A9F90018B9F300D9A9F43
:1058A000300D112405C060E020E030E040E050E021
:1058B000E0919C05F0919D05309709F471C08091AD
:1058C0009E0590919F05A091A005B091A105E92E9C
:1058D000FA2E0B2F1127EE0DFF1DE859FF4FE49113
:1058E0007091A40571116062E090A205F090A3058B
:1058F00000E010E0E80EF91E0A1F1B1FE0929E0553
:10590000F0929F050093A0051093A1058091A60534
:105910009091A705A091A805B091A905E816F906F0
:105920000A071B0708F082C1A091A505B0E0FF2778
:10593000E7FDF095C72FD0E00FE310E00A1B1B0B2B
:10594000E09FC001E19F900DF09F900D1124082E63
:10595000892F000C881F990B000C881F991F8C9FA2
:1059600080018D9F100D9C9F100D1124400F511F21
:10597000EA9FC001EB9F900DFA9F900D1124082E15
:10598000892F000C881F990B000C881F991F8C9F72
:10599000F0018D9FF00D9C9FF00D11242E0F3F1FE5
:1059A000E091AE05F091AF05309709F471C0809198
:1059B000B0059091B105A091B205B091B305E92E63
:1059C000FA2E0B2F1127EE0DFF1DE859FF4FE49122
:1059D0007091B60571116064E090B405F090B50562
:1059E00000E010E0E80EF91E0A1F1B1FE092B00550
:1059F000F092B1050093B2051093B3058091B805FC
:105A00009091B905A091BA05B091BB05E816F906C9
:105A10000A071B0708F0F0C0A091B705B0E0FF2708
:105A2000E7FDF095C72FD0E00FE310E00A1B1B0B3A
:105A3000E09FC001E19F900DF09F900D1124082E72
:105A4000892F000C881F990B000C881F991F8C9FB1
:105A500080018D9F100D9C9F100D1124400F511F30
:105A6000EA9FC001EB9F900DFA9F900D1124082E24
:105A7000892F000C881F990B000C881F991F8C9F81
:105A8000F0018D9FF00D9C9FF00D11242E0F3F1FF4
:105A9000E091C005F091C105309709F471C0809183
:105AA000C2059091C305A091C405B091C505E92E2A
:105AB000FA2E0B2F1127EE0DFF1DE859FF4FE49131
:105AC0007091C80571116068E090C605F090C70537
:105AD00000E010E0E80EF91E0A1F1B1FE092C2054D
